:020000040800F2
:10000000000002200D0B0008750A0008770A00089E
:10001000790A00087B0A00087D0A00080000000039
:10002000000000000000000000000000611D00084A
:100030007F0A000800000000011E0008651E00087D
:100040005D0B00085D0B00085D0B00085D0B0008F0
:100050005D0B00085D0B00085D0B00085D0B0008E0
:100060005D0B00085D0B00085D0B00085D0B0008D0
:100070005D0B00085D0B00085D0B00085D0B0008C0
:100080005D0B00085D0B00085D0B00085D0B0008B0
:10009000810A00085D0B00085D0B00085D0B00087D
:1000A0005D0B0008910A00085D0B00085D0B00085D
:1000B0005D0B00085D0B00085D0B00085D0B000880
:1000C0005D0B00085D0B00085D0B00085D0B000870
:1000D0005D0B00085D0B00085D0B00085D0B000860
:1000E0005D0B00085D0B00085D0B00085D0B000850
:1000F0005D0B00085D0B00085D0B00085D0B000840
:100100005D0B00085D0B00085D0B00085D0B00082F
:100110005D0B00085D0B00085D0B00085D0B00081F
:100120005D0B00085D0B00085D0B00085D0B00080F
:100130005D0B00085D0B00085D0B00085D0B0008FF
:10014000A10A00085D0B00085D0B00085D0B0008AC
:100150005D0B00085D0B00085D0B00085D0B0008DF
:100160005D0B00085D0B00085D0B00085D0B0008CF
:100170005D0B00085D0B00085D0B0008000000002F
:080180005D0B00085D0B000897
:1001900010B5054C237833B9044B13B10448AFF3C1
:1001A00000800123237010BD5808002000000000CB
:1001B000903D000808B5034B1BB103490348AFF35A
:1001C000008008BD000000005C080020903D000891
:1001D00053B94AB9002908BF00281CBF4FF0FF31AE
:1001E0004FF0FF3000F074B9ADF1080C6DE904CEAA
:1001F00000F006F8DDF804E0DDE9022304B0704702
:100200002DE9F047089D04468E46002B4DD18A42C9
:10021000944669D9B2FA82F252B101FA02F3C2F1FC
:10022000200120FA01F10CFA02FC41EA030E94408D
:100230004FEA1C48210CBEFBF8F61FFA8CF708FBAE
:1002400016E341EA034306FB07F199420AD91CEB86
:10025000030306F1FF3080F01F81994240F21C81B8
:10026000023E63445B1AA4B2B3FBF8F008FB103300
:1002700044EA034400FB07F7A7420AD91CEB040435
:1002800000F1FF3380F00A81A74240F20781644405
:10029000023840EA0640E41B00261DB1D44000238A
:1002A000C5E900433146BDE8F0878B4209D9002DEE
:1002B00000F0EF800026C5E9000130463146BDE878
:1002C000F087B3FA83F6002E4AD18B4202D38242E2
:1002D00000F2F980841A61EB030301209E46002D91
:1002E000E0D0C5E9004EDDE702B9FFDEB2FA82F2E6
:1002F000002A40F09280A1EB0C014FEA1C471FFA44
:100300008CFE0126200CB1FBF7F307FB131140EA2A
:1003100001410EFB03F0884208D91CEB010103F1F7
:10032000FF3802D2884200F2CB804346091AA4B2B9
:10033000B1FBF7F007FB101144EA01440EFB00FE8D
:10034000A64508D91CEB040400F1FF3102D2A645F2
:1003500000F2BB800846A4EB0E0440EA03409CE791
:10036000C6F12007B34022FA07FC4CEA030C20FA3E
:1003700007F401FA06F31C43F9404FEA1C4900FA5E
:1003800006F3B1FBF9F8200C1FFA8CFE09FB1811DB
:1003900040EA014108FB0EF0884202FA06F20BD94E
:1003A0001CEB010108F1FF3A80F08880884240F29E
:1003B0008580A8F102086144091AA4B2B1FBF9F0E2
:1003C00009FB101144EA014100FB0EFE8E4508D9DD
:1003D0001CEB010100F1FF346CD28E456AD9023862
:1003E000614440EA0840A0FB0294A1EB0E01A14247
:1003F000C846A64656D353D05DB1B3EB080261EBB5
:100400000E0101FA07F722FA06F3F1401F43C5E98E
:10041000007100263146BDE8F087C2F12003D840C4
:100420000CFA02FC21FA03F3914001434FEA1C4706
:100430001FFA8CFEB3FBF7F007FB10360B0C43EAF8
:10044000064300FB0EF69E4204FA02F408D91CEBA8
:10045000030300F1FF382FD29E422DD902386344A6
:100460009B1B89B2B3FBF7F607FB163341EA034146
:1004700006FB0EF38B4208D91CEB010106F1FF3895
:1004800016D28B4214D9023E6144C91A46EA00468C
:1004900038E72E46284605E70646E3E61846F8E61E
:1004A0004B45A9D2B9EB020864EB0C0E0138A3E767
:1004B0004646EAE7204694E74046D1E7D0467BE748
:1004C000023B614432E7304609E76444023842E7C0
:1004D000704700BF844641EA000313F003036DD167
:1004E000403A41D351F8043B40F8043B51F8043BF7
:1004F00040F8043B51F8043B40F8043B51F8043BFE
:1005000040F8043B51F8043B40F8043B51F8043BED
:1005100040F8043B51F8043B40F8043B51F8043BDD
:1005200040F8043B51F8043B40F8043B51F8043BCD
:1005300040F8043B51F8043B40F8043B51F8043BBD
:1005400040F8043B51F8043B40F8043B51F8043BAD
:1005500040F8043B51F8043B40F8043B51F8043B9D
:1005600040F8043B403ABDD2303211D351F8043B3D
:1005700040F8043B51F8043B40F8043B51F8043B7D
:1005800040F8043B51F8043B40F8043B103AEDD2EC
:100590000C3205D351F8043B40F8043B043AF9D23D
:1005A000043208D0D2071CBF11F8013B00F8013B10
:1005B00001D30B8803806046704700BF082A13D31D
:1005C0008B078DD010F003038AD0C3F10403D21A35
:1005D000DB071CBF11F8013B00F8013B80D331F869
:1005E000023B20F8023B7BE7043AD9D3013A11F8E9
:1005F000013B00F8013BF9D20B7803704B78437054
:100600008B788370604670477047000008B50E48CD
:100610000E4B03600323436000238360C3604FF4E9
:10062000102202614FF400124261037601224276E9
:100630008376C3760377437700F0BEFA00B908BD2E
:1006400000F044F9FBE700BF780800200064004098
:1006500008B50E480E4B03600323436000238360FC
:10066000C3604FF4102202614FF40012426103761E
:10067000012242768376C3760377437700F09CFAB3
:1006800000B908BD00F022F9FBE700BFA008002078
:100690000068004010B58AB00023059306930793C5
:1006A0000893099303683D4A934204D03C4A93421D
:1006B00034D00AB010BD3B4A136801331360012BDC
:1006C0001FD000240194384B1A6B42F008021A63C1
:1006D0001B6B03F008030193019B03230593022284
:1006E000069208930923099305A9304800F094FC69
:1006F00022460521142000F049FC142000F07EFC65
:10070000D7E700230093284B1A6C42F000721A645A
:100710001B6C03F000730093009BD2E7002302934D
:10072000214B1A6C42F080621A641B6C03F08063E8
:100730000293029B1B4A136801331360012B20D0E4
:1007400000240494184B1A6B42F002021A631B6BCC
:1007500003F002030493049B602305930223069392
:10076000032308930923099305A9114800F054FCB9
:1007700022460521402000F009FC402000F03EFC0C
:1007800097E700230393084B1A6C42F000721A6437
:100790001B6C03F000730393039BD1E700640040DC
:1007A000006800407408002000380240000C02403D
:1007B0000004024008B5012001F02CFAFBE708B55F
:1007C000012001F027FAFBE7034B0360034B0B60AA
:1007D00080231360704700BFD00A0020D00800209B
:1007E000034B0360034B0B604FF48073136070473F
:1007F00050130020500F002010B58EB0124C0DF198
:100800001C0CA646BEE80F00ACE80F009EE80700EF
:100810008CE80700002107A801F0C7F90B4B18600E
:10082000EE4604F11C0CBCE80F00AEE80F009CE89B
:1008300007008EE807000021684601F0B6F9044B76
:1008400018600EB010BD00BFA83D0008C808002009
:10085000CC08002084B000220092154B196B41F0A7
:1008600002011963196B01F00201009100990192D4
:10087000196B41F001011963196B01F0010101913C
:1008800001990292196B41F008011963196B01F08B
:1008900008010291029903921A6B42F080021A63D6
:1008A0001B6B03F080030393039B04B0704700BFEE
:1008B0000038024008B50268034B9A4200D008BDD8
:1008C00000F068F9FBE700BF0000014072B6FEE7E8
:1008D00000B595B03022002108A802F0B7FF002330
:1008E000039304930593069307930193204A116C95
:1008F00041F080511164126C02F080520192019A11
:1009000002931C4B1A6842F480421A601B6803F47D
:1009100080430293029B012308934FF48033099391
:1009200002230E934FF480020F9206221092A82207
:10093000119212930423139308A800F05FFC98B956
:100940000F23039302230493002305934FF4A05332
:1009500006934FF480530793052103A800F09CFEF3
:1009600020B915B05DF804FBFFF7B0FFFFF7AEFF4D
:10097000003802400070004008B500F0F1F8FFF7C1
:10098000A7FFFFF767FFFFF741FEFFF761FEFFF7E5
:1009900033FF01F005F9FEE700B583B000220092B5
:1009A0000D4B596C41F480415964596C01F48041FC
:1009B000009100990192196C41F0805119641B6CEF
:1009C00003F080530193019B0F216FF0010000F0B1
:1009D000DDFA03B05DF804FB0038024030B589B0A1
:1009E0000546002401941E4B5A6C42F001025A64E1
:1009F0005B6C03F001030193019B02A903A800F0C3
:100A000011FF00F0FFFE43001648A0FB03239B0CE0
:100A1000013B1548154A026040F2E732C26043606C
:100A200004618460846101F087F8044610B12046B7
:100A300009B030BD0C4800F015FF04460028F6D17F
:100A4000192000F0DBFA0F2D01D90124EFE7002275
:100A50002946192000F09AFA054B1D60E7E700BF10
:100A60000038024083DE1B43D01700200000014005
:100A700008000020FEE7FEE7FEE7FEE7FEE770471E
:100A800008B5024800F04AF908BD00BF7808002008
:100A900008B5024800F02EFF08BD00BFD0170020A7
:100AA00008B5024800F03AF908BD00BFA0080020D0
:100AB00010B503460C4A0D490D48006840B10C487A
:100AC00000680344521A934206D8094A136010BDC5
:100AD0000748084C0460F2E702F08EFE0C23036026
:100AE0004FF0FF30F3E700BF0000022000040000D9
:100AF00018180020E87A0020034AD2F8883043F41E
:100B00007003C2F88830704700ED00E0DFF834D0A1
:100B10000D480E490E4A002302E0D458C450043355
:100B2000C4188C42F9D30B4A0B4C002301E013602C
:100B30000432A242FBD3FFF7DFFF02F063FEFFF7B0
:100B40001BFF704700000220000000205408002016
:100B5000403E000858080020E87A0020FEE7000028
:100B600008B50B4B1A6842F400721A601A6842F416
:100B700080621A601A6842F480721A60032000F0E2
:100B8000F3F90F20FFF72AFFFFF706FF002008BD4B
:100B9000003C0240034A1168034B1B780B4413606E
:100BA000704700BF1C18002004000020014B18688B
:100BB000704700BF1C180020002800F0A18038B545
:100BC000044690F82030D3B12268136843F0010343
:100BD0001360FFF7EBFF054623685A6812F0010F18
:100BE00010D1FFF7E3FF401B0A28F5D9636A43F4ED
:100BF00000336362052384F82030012038BDFFF7FD
:100C000049FDE1E71A6822F002021A60FFF7CEFF01
:100C1000054623685A6812F0020F0DD0FFF7C6FF91
:100C2000401B0A28F5D9636A43F400336362052345
:100C300084F820300120E1E7227E012A3DD01A68A5
:100C400022F080021A60637E012B3BD02268136879
:100C500023F040031360A37E012B39D02268136870
:100C600023F020031360E37E012B37D02268136842
:100C700043F010031360237F012B35D022681368E3
:100C800023F008031360637F012B33D022681368BD
:100C900023F004031360A368E2681343226913433B
:100CA000626913436268013A21681343CB610020F3
:100CB0006062012384F82030A0E71A6842F08002C5
:100CC0001A60C0E72268136843F040031360C2E76C
:100CD0002268136843F020031360C4E72268136896
:100CE00023F010031360C6E72268136843F008037B
:100CF0001360C8E72268136843F004031360CAE76F
:100D000001207047704770477047704770477047C1
:100D10007047704770477047704770472DE9F84F2C
:100D2000054603685C69D3F804809F68D3F80CB06B
:100D3000D3F810A0D3F8189014F001063BD017F0A8
:100D4000010616D001229A6017F0020F08D117F0A1
:100D5000040F0CD117F0080606D04FF4805608E0B7
:100D6000FFF7D0FF002604E0FFF7CFFF01E04FF4CC
:100D7000006617F4807F0DD02B684FF480729A6064
:100D800017F4007F40F0868017F4806F00F08680B3
:100D900046F4005617F4803F0DD02B684FF4803294
:100DA0009A6017F4003F40F0838017F4802F00F022
:100DB000838046F4004614F0080F07D01BF0100F94
:100DC00004D046F400762B681022DA6014F0040F89
:100DD00002D01BF0080F79D114F0020F04D02B6859
:100DE000DB6813F0030F78D114F0400F07D01AF02E
:100DF000100F04D046F480662B6810221A6114F09C
:100E0000200F02D01AF0080F6BD114F0100F04D08D
:100E10002B681B6913F0030F6AD114F4003F02D052
:100E200018F0100F68D114F4803F02D018F0080FAA
:100E300069D114F4004F7AD018F0040F74D014F470
:100E4000807F04D019F0010F01D046F0010614F4A0
:100E5000007F04D019F0020F01D046F0020614F40E
:100E6000806F04D019F0040F01D046F0040614F48A
:100E7000006F59D019F0700956D0B9F1400F65D004
:100E800058D8B9F1200F5ED0B9F1300F42D146F0F9
:100E9000200644E02846FFF736FF7BE717F4006F93
:100EA00002D046F4804675E72846FFF72FFF71E72A
:100EB0002846FFF729FF7EE717F4002F02D046F4FB
:100EC000803678E72846FFF722FF74E72B68082270
:100ED000DA602846FFF71CFF7EE72846FFF794FB01
:100EE00082E72B6808221A612846FFF713FF8CE778
:100EF0002846FFF70EFF90E72B6810225A6028461D
:100F0000FFF709FF8FE72B6808225A602846FFF792
:100F100003FF8EE7B9F1100F01D146F008062A68E9
:100F2000936923F0700393612B6804225A609EB981
:100F3000BDE8F88FB9F1500F0BD0B9F1600FEED1C9
:100F400046F48076EBE746F01006E8E746F0400608
:100F5000E5E746F08006E2E76B6A1E436E622846CC
:100F6000FFF7DBFEE4E70000074AD36823F4E06301
:100F70001B041B0C000200F4E060034343F0BF635A
:100F800043F40033D360704700ED00E000B5194B27
:100F9000DB68C3F30223C3F1070CBCF1040F28BFC5
:100FA0004FF0040C03F1040EBEF1060F18D9033BF9
:100FB0004FF0FF3E0EFA0CFC21EA0C0199400EFAAC
:100FC00003F322EA0303194300280BDB0901C9B22A
:100FD00000F1604000F5614080F800135DF804FB0B
:100FE0000023E5E700F00F000901C9B2024B1954D4
:100FF000F4E700BF00ED00E014ED00E0002807DB9F
:1010000000F01F02400901239340024A42F82030B9
:10101000704700BF00E100E000230F2B00F2E480E6
:1010200070B582B060E085685E000324B44025EAB4
:101030000405CC68B4402C438460456825EA020569
:101040004C68C4F300129A402A4342605AE0DC081C
:10105000083450F8246003F0070295000F22AA40DC
:1010600026EA020E0A69AA4042EA0E0240F824204B
:101070005CE0072200E0002202FA0EF22A4302346A
:101080005A4D45F824205A4A94686FEA0C0224EA23
:101090000C054E6816F4801F01D04CEA0405544C30
:1010A000A560E46802EA04054E6816F4001F01D04A
:1010B0004CEA04054E4CE560646802EA04054E689B
:1010C00016F4003F01D04CEA0405494C65602468E1
:1010D00022404D6815F4803F01D04CEA0402444C94
:1010E000226001330F2B7DD801229A400C6804EA5C
:1010F000020C32EA0404F4D14C6804F00304013C0D
:10110000012C90D94A6802F00302032A09D0C4686E
:101110005D000322AA4024EA02048A68AA4022430E
:10112000C2604A6802F00302022A90D004684FEAC3
:10113000430E032202FA0EF224EA02044A6802F085
:10114000030202FA0EF2224302604A6812F4403FA0
:10115000C7D000220192274A546C44F4804454645E
:10116000526C02F480420192019A9C08A51C1F4A0D
:1011700052F8255003F003024FEA820E0F2202FAC2
:101180000EF225EA02051C4A90423FF474AF02F5C4
:10119000806290421AD002F58062904218D002F527
:1011A0008062904216D002F58062904214D002F51F
:1011B0008062904212D002F58062904210D002F517
:1011C000806290423FF455AF082255E7012253E771
:1011D000022251E703224FE704224DE705224BE7A5
:1011E000062249E702B070BD704700BF00380140D9
:1011F000003C01400038024000000240002800F09E
:10120000E08170B582B00446036813F0010F3BD053
:101210009F4B9B6803F00C03042B2CD09C4B9B68CA
:1012200003F00C03082B21D06368B3F5803F4FD047
:10123000B3F5A02F52D0964B1A6822F480321A6070
:101240001A6822F480221A606368002B50D0FFF7DE
:10125000ADFC05468E4B1B6813F4003F14D1FFF71D
:10126000A5FC401B6428F5D90320B1E1884B5B68DD
:1012700013F4800FD8D0864B1B6813F4003F03D0C3
:101280006368002B00F09F81236813F0020F54D095
:101290007F4B9B6813F00C0F3ED07D4B9B6803F097
:1012A0000C03082B33D0E368002B68D0794B012264
:1012B0001A60FFF77BFC0546754B1B6813F0020FA5
:1012C00054D1FFF773FC401B0228F5D903207FE1BE
:1012D0006F4A136843F480331360B5E76C4B1A68A8
:1012E00042F480221A601A6842F480321A60ABE736
:1012F000FFF75CFC0546664B1B6813F4003FC3D048
:10130000FFF754FC401B6428F5D9032060E1604BD3
:101310005B6813F4800FC6D15D4B1B6813F0020F9E
:1013200003D0E368012B40F05081594A136823F041
:10133000F803216943EAC1031360236813F0080F1F
:1013400042D063696BB3534B0122C3F8802EFFF781
:101350002DFC05464E4B5B6F13F0020F34D1FFF7A7
:1013600025FC401B0228F5D9032031E1484A1368C7
:1013700023F0F803216943EAC1031360DDE7454B1D
:1013800000221A60FFF712FC0546414B1B6813F060
:10139000020FD2D0FFF70AFC401B0228F5D9032028
:1013A00016E13C4B0022C3F8802EFFF7FFFB0546F9
:1013B000374B5B6F13F0020F06D0FFF7F7FB401BB4
:1013C0000228F5D9032003E1236813F0040F77D036
:1013D0002F4B1B6C13F0805F33D1002301932C4BF8
:1013E0001A6C42F080521A641B6C03F08053019314
:1013F000019B0125284B1B6813F4807F23D0A36831
:10140000012B34D0052B38D0214B1A6F22F001026A
:101410001A671A6F22F004021A67A368002B3DD0E6
:10142000FFF7C4FB06461A4B1B6F13F0020F46D1A1
:10143000FFF7BCFB801B41F288339842F3D90320AD
:10144000C6E00025D6E7144A136843F4807313609E
:10145000FFF7ACFB0646104B1B6813F4807FCED120
:10146000FFF7A4FB801B0228F5D90320B0E0084A4F
:10147000136F43F001031367CFE7054B1A6F42F078
:1014800004021A671A6F42F001021A67C5E700BF2B
:10149000003802400000474200700040FFF786FB22
:1014A0000646524B1B6F13F0020F08D0FFF77EFB6E
:1014B000801B41F288339842F3D9032088E0EDB9CC
:1014C000A369002B00F08380484A926802F00C0266
:1014D000082A51D0022B17D0454B00221A66FFF77D
:1014E00065FB0446414B1B6813F0007F42D0FFF7B9
:1014F0005DFB001B0228F5D9032069E03B4A136C11
:1015000023F080531364DBE7394B00221A66FFF7A0
:101510004DFB0546354B1B6813F0007F06D0FFF7E7
:1015200045FB401B0228F5D9032051E0E369226AFC
:101530001343626A43EA8213A26A5208013A43EAF9
:101540000243E26A43EA0263284A5360284B0122BD
:101550001A66FFF72BFB0446244B1B6813F0007F31
:1015600006D1FFF723FB001B0228F5D903202FE04B
:1015700000202DE000202BE0012B2BD01B4B5B68C3
:1015800003F48001E269914226D103F03F02216A0F
:101590008A4223D1616A47F6C0721A40B2EB811FBA
:1015A0001ED103F44031A26A5208013AB1EB024F56
:1015B00018D103F07063E26AB3EB026F14D100201C
:1015C00006E001207047012002E0012000E0002039
:1015D00002B070BD0120FBE70120F9E70120F7E729
:1015E0000120F5E70120F3E70120F1E70038024090
:1015F0000000474208B5254B9B6803F00C03042B01
:101600003FD0082B3FD1214B5A6802F03F025B6864
:1016100013F4800F12D01D4B5968C1F388111C4878
:101620000023A1FB0001FEF7D3FD184B5B68C3F359
:10163000014301335B00B0FBF3F025E0134B596825
:10164000C1F3881C4FEA4C11B1EB0C006EEB0E0E8F
:101650004FEA8E1343EA90638101091A63EB0E038C
:10166000DB0043EA5173C90011EB0C0C43F100039A
:10167000990200234FEA8C2041EA9C51FEF7A8FD15
:10168000D3E7034800E0034808BD00BF003802402C
:10169000001BB7000024F400002800F09B8070B508
:1016A0000D4604464F4B1B6803F007038B4208D2DC
:1016B000CBB24C4A1370136803F007038B4240F01F
:1016C0008B80236813F0020F17D013F0040F04D09F
:1016D000454A936843F4E0539360236813F0080F7E
:1016E00004D0414A936843F4604393603E4A936850
:1016F00023F0F003A1680B439360236813F0010FFC
:1017000032D06368012B21D09A1E012A25D9364A8E
:10171000126812F0020F61D033498A6822F0030286
:1017200013438B60FFF742FA06462F4B9B6803F08A
:101730000C036268B3EB820F16D0FFF737FA801BF9
:1017400041F288339842F0D9032042E0264A1268D9
:1017500012F4003FE0D101203BE0234A126812F06E
:10176000007FD9D1012034E01E4B1B6803F0070332
:10177000AB4207D9EAB21B4B1A701B6803F0070390
:10178000AB422DD1236813F0040F06D0164A93689C
:1017900023F4E053E1680B439360236813F0080FD0
:1017A00007D0114A936823F46043216943EAC103D7
:1017B0009360FFF71FFF0C4B9B68C3F303130B4AA7
:1017C000D35CD8400A4B18600A4B1868FFF706F93B
:1017D000002070BD012070470120FAE70120F8E7E2
:1017E0000120F6E7003C024000380240F83D0008C6
:1017F0000000002008000020014B1868704700BF5F
:101800000000002008B5FFF7F7FF044B9B68C3F307
:101810004233034AD35CD84008BD00BF00380240C1
:10182000083E00080F2303600B4B9A6802F0030286
:1018300042609A6802F0F00282609A6802F4E05214
:10184000C2609B68DB0803F4E0530361034B1B6831
:1018500003F007030B60704700380240003C024071
:101860007047000090F83D30DBB2012B37D10223E6
:1018700080F83D300268D36843F00103D360036809
:10188000194A934220D0B3F1804F1DD0A2F57C427B
:10189000934219D002F58062934215D002F580621E
:1018A000934211D002F5784293420DD002F5705266
:1018B000934209D0A2F59432934205D01A6842F0BF
:1018C00001021A60002070479A6802F00702062A97
:1018D00007D01A6842F001021A6000207047012008
:1018E00070470020704700BF0000014070477047FC
:1018F0007047704710B5044603681A6912F0020F6A
:1019000011D0DA6812F0020F0DD06FF002021A61E6
:101910000123037703689B6913F0030F70D0FFF76F
:10192000E6FF0023237723681A6912F0040F12D010
:10193000DA6812F0040F0ED06FF004021A6102236D
:10194000237723689B6913F4407F5FD02046FFF71D
:10195000CEFF0023237723681A6912F0080F12D0F4
:10196000DA6812F0080F0ED06FF008021A61042333
:1019700023772368DB6913F0030F4ED02046FFF76F
:10198000B6FF0023237723681A6912F0100F12D0D4
:10199000DA6812F0100F0ED06FF010021A610823EF
:1019A00023772368DB6913F4407F3DD02046FFF79F
:1019B0009EFF0023237723681A6912F0010F03D0DA
:1019C000DA6812F0010F36D123681A6912F0800F1D
:1019D00003D0DA6812F0800F34D123681A6912F04C
:1019E000400F03D0DA6812F0400F32D123681A6931
:1019F00012F0200F03D0DA6812F0200F30D110BDA2
:101A0000FFF774FF2046FFF773FF8AE72046FFF7D2
:101A10006DFF2046FFF76CFF9BE72046FFF766FF50
:101A20002046FFF765FFACE72046FFF75FFF204643
:101A3000FFF75EFFBDE76FF001021A612046FEF777
:101A400039FFC1E76FF080021A61204600F0A1F86B
:101A5000C3E76FF040021A612046FFF74AFFC5E76F
:101A60006FF020021A61204600F092F8C7E70000EC
:101A70000368304A904212D0B0F1804F0FD0A2F5E7
:101A80007C4290420BD002F58062904207D002F572
:101A90008062904203D002F57842904203D123F055
:101AA00070034A681343234A90422AD0B0F1804F12
:101AB00027D0A2F57C42904223D002F5806290426A
:101AC0001FD002F5806290421BD002F5784290420E
:101AD00017D002F57052904213D002F58062904206
:101AE0000FD002F5806290420BD0A2F5983290425E
:101AF00007D002F58062904203D002F580629042E6
:101B000003D123F44073CA68134323F080034A6966
:101B1000134303608B68C3620B688362054B984272
:101B200003D003F58063984201D10B69036301235D
:101B3000436170470000014040B310B5044690F87F
:101B40003D30F3B1022384F83D30214651F8040BB7
:101B5000FFF78EFF012384F8463084F83E3084F886
:101B60003F3084F8403084F8413084F8423084F8C3
:101B7000433084F8443084F8453084F83D30002008
:101B800010BD80F83C30FFF76BFEDBE701207047AB
:101B900070477047842801D0033070470020704799
:101BA00008B501F0EBF8002008BD2DE9F04387B03F
:101BB00004460F464569BDB18669AEB1D0F80480D0
:101BC000D0F80090B0F90800FFF7E4FF0296019505
:101BD00000903B4622694946404601F05DF8059079
:101BE000059807B0BDE8F08365682668D4F81080D2
:101BF000B4F90800FFF7CEFF05AB019300903B4618
:101C00001FFA88F23146284601F083F80128E7D010
:101C10000020E6E708B500B9012001F01BFA00201A
:101C200008BD00F1080343604FF0FF328260C360DB
:101C3000036100230360704700230361704743681A
:101C40004B609A688A60516099600861036801334B
:101C50000360704730B40D68B5F1FF3F11D000F15B
:101C600008031C465B681A68AA42FAD963684B608D
:101C700099608C606160086103680133036030BC67
:101C800070470469F2E70369416882688A604168C5
:101C900051605A68824206D0002202611A68013AF5
:101CA0001A601868704782685A60F5E782B00023AE
:101CB00001930D4B1B68B3F1FF3F08D04FF0500369
:101CC00083F31188BFF36F8FBFF34F8FFEE74FF0A1
:101CD000500383F31188BFF36F8FBFF34F8F019BC6
:101CE000002BFCD002B070470C00002008480068B0
:101CF000006880F308884FF0000080F3148862B613
:101D000061B6BFF34F8FBFF36F8F00DF00BF0000DE
:101D100008ED00E0DFF80C00016841F4700101609B
:101D20007047000088ED00E04FF0807340F8043CFD
:101D300021F0010140F8081C054B40F80C3C40F82C
:101D4000202C6FF0020340F8243C4438704700BF59
:101D5000AD1C0008000000000000000000000000B2
:101D6000074B19680868B0E8F04F80F30988BFF3A3
:101D70006F8F4FF0000080F311887047AFF3008041
:101D8000887800204FF0500383F31188BFF36F8FE2
:101D9000BFF34F8F0B4A136801331360012B00D040
:101DA00070474FF0E023D3F8043D13F0FF0FF7D056
:101DB0004FF0500383F31188BFF36F8FBFF34F8F42
:101DC000FEE700BF0C000020094B1B6843B94FF031
:101DD000500383F31188BFF36F8FBFF34F8FFEE77C
:101DE000013B034A13600BB983F31188704700BFAE
:101DF0000C000020000000000000000000000000B7
:101E0000EFF30980BFF36F8F154B1A681EF0100FA8
:101E100008BF20ED108A20E9F04F10602DE909007D
:101E20004FF0500080F31188BFF34F8FBFF36F8FD7
:101E300001F036F94FF0000080F3118809BC1968F1
:101E40000868B0E8F04F1EF0100F08BFB0EC108A21
:101E500080F30988BFF36F8F704700BFAFF3008036
:101E60008878002008B54FF0500383F31188BFF342
:101E70006F8FBFF34F8F00F0E5FF28B14FF0E023E5
:101E80004FF08052C3F8042D002383F3118808BD5E
:101E90004FF0E022002313619361054B1B68054955
:101EA000A1FB03139B09013B536107231361704797
:101EB00000000020D34D62104FF0E023D3F8002D36
:101EC0003D4B9A421CD04FF0E023D3F8002D3B4B02
:101ED0009A421ED030B583B0394B1A78D2B20192F3
:101EE000FF221A701B78DBB28DF803309DF80330A7
:101EF00003F05003334A1370334B07221A601BE080
:101F00004FF0500383F31188BFF36F8FBFF34F8FF0
:101F1000FEE74FF0500383F31188BFF36F8FBFF3D9
:101F20004F8FFEE7284A1368013B13609DF803308A
:101F30005B00DBB28DF803309DF8033013F0800FA7
:101F4000F0D1214B1B68032B08D04FF0500383F3D3
:101F50001188BFF36F8FBFF34F8FFEE71B021A4A42
:101F6000136003F4E0631360019BDBB2144A137047
:101F70004FF0E024D4F8203D43F47003C4F8203D32
:101F8000D4F8203D43F07043C4F8203DFFF780FFB4
:101F900000250E4B1D60FFF7BDFED4F8343F43F023
:101FA0004043C4F8343FFFF7A1FE01F079F8FFF792
:101FB0007DFE284603B030BD71C20F4170C20F4193
:101FC00000E400E020180020241800200C0000206D
:101FD000EFF305830F2B0FD9114A9B5CDBB2114A3B
:101FE00012789A4208D94FF0500383F31188BFF357
:101FF0006F8FBFF34F8FFEE74FF0E023D3F80C3D18
:1020000003F4E063084A1268934208D94FF0500382
:1020100083F31188BFF36F8FBFF34F8FFEE77047D5
:10202000F0E300E02018002024180020124A12F0EB
:10203000070F1ED0D11D21F00701C1F5C043134485
:102040000A460E480260002141601344083B23F019
:1020500007030B48036059601960991A51601360B7
:10206000084B1960084B1960084B4FF000421A608A
:1020700070474FF4C043E4E72C180020407800205C
:102080002818002034780020307800202C78002098
:10209000164B1A461B688342FBD3516802EB010CB6
:1020A000844509D0416800EB010C634509D0036009
:1020B000904219D01060704740680144516010464A
:1020C000F0E710B40A4C2468A3420BD05B681944B3
:1020D000416013681B680360904200D010605DF897
:1020E000044B70470460F7E7704700BF407800205A
:1020F0002818002070B5054600F096FE364B1B6888
:10210000A3B1364B1B681D424ED135B1083515F0D1
:10211000070F02D025F007050835002D46D0304BBB
:102120001B68AB4251D32F4A146804E0FFF77EFFCF
:10213000E7E722461C466368AB4202D22368002BC5
:10214000F7D1254B1B68A34241D016680836236897
:10215000136063685B1B102B10D9601910F0070F18
:1021600008D04FF0500383F31188BFF36F8FBFF394
:102170004F8FFEE743606560FFF78AFF626818498A
:102180000B689B1A0B60184909688B4201D21649EB
:102190000B60124B1B681343636000232360134AD8
:1021A00013680133136002E0002600E0002600F00F
:1021B000D5FE16F0070F0CD04FF0500383F31188B3
:1021C000BFF36F8FBFF34F8FFEE70026EFE70026C8
:1021D000EDE7304670BD00BF281800202C780020A5
:1021E00030780020407800203478002038780020B3
:1021F000002834D038B50446A0F1080550F8043C56
:10220000174A1268134208D14FF0500383F3118824
:10221000BFF36F8FBFF34F8FFEE750F8081C41B13B
:102220004FF0500383F31188BFF36F8FBFF34F8FCD
:10223000FEE723EA020340F8043C00F0F5FD54F801
:10224000041C084A13680B4413602846FFF720FF5C
:10225000054A13680133136000F080FE38BD7047F3
:102260002C780020307800203C78002010B50446FF
:10227000FFF788FDA26BE36B9A4204D00024FFF7BE
:10228000A3FD204610BD0124F9E710B50446FFF771
:1022900079FDA36B23B90124FFF796FD204610BDFD
:1022A0000024F9E770B504461546866B026C5AB9EE
:1022B00003681BB100200136A66370BD806801F081
:1022C0001FF80023A360F6E76DB94068FEF702F936
:1022D000226C636813446360A268934219D3236835
:1022E00063602846E7E7C068FEF7F4F8226C5142C5
:1022F000E3689B1AE3602268934202D2A3680B440E
:10230000E360022D01D00020D5E726B1013E002078
:10231000D1E72846CFE70020CDE70346026C6AB13B
:1023200010B50846D9681144D9609C68A14201D310
:102330001968D960D968FEF7CDF810BD704738B577
:102340000546FFF71FFD95F8454064B201E0013CEA
:1023500064B2002C0ADD6B6A43B105F1240000F081
:1023600025FF0028F3D000F0B5FFF0E7FF2385F844
:102370004530FFF729FDFFF705FD95F8444064B2AD
:1023800001E0013C64B2002C0ADD2B6943B105F188
:10239000100000F00BFF0028F3D000F09BFFF0E7E7
:1023A000FF2385F84430FFF70FFD38BD38B5E0B1A5
:1023B0000D460446FFF7E6FC2368E26B216C01FB47
:1023C0000230A0600020A0636360013A02FB013389
:1023D000E360FF2384F8443084F84530FDB9236975
:1023E00063B9FFF7F1FC012038BD4FF0500383F3D0
:1023F0001188BFF36F8FBFF34F8FFEE704F110001A
:1024000000F0D4FE0028ECD04FF0E0234FF08052D3
:10241000C3F8042DBFF34F8FBFF36F8FE1E704F1D3
:102420001000FFF7FEFB04F12400FFF7FAFBD8E7EA
:1024300010B5034602980C4631B90060C3630464CA
:102440000121FFF7B3FF10BD0260F7E740B94FF07D
:10245000500383F31188BFF36F8FBFF34F8FFEE7F5
:1024600010B584B01C46844653B192B189B94FF07F
:10247000500383F31188BFF36F8FBFF34F8FFEE7D5
:102480004FF0500383F31188BFF36F8FBFF34F8F6B
:10249000FEE76AB148230393039B482B13D04FF008
:1024A000500383F31188BFF36F8FBFF34F8FFEE7A5
:1024B0000029EFD04FF0500383F31188BFF36F8FE3
:1024C000BFF34F8FFEE7039B012384F8463000944F
:1024D0009DF818306046FFF7ABFF204604B010BDF2
:1024E000F0B585B0019288B10F461D460446B1B1E2
:1024F000022D20D1E36B012B1DD04FF0500383F34D
:102500001188BFF36F8FBFF34F8FFEE74FF050037B
:1025100083F31188BFF36F8FBFF34F8FFEE7036C18
:10252000002BE5D04FF0500383F31188BFF36F8F7A
:10253000BFF34F8FFEE700F0D3FE064658B9019B6C
:10254000002B48D04FF0500383F31188BFF36F8FF7
:10255000BFF34F8FFEE700263DE02A46394620466E
:10256000FFF7A0FE636A7BB948B14FF0E0234FF05C
:102570008052C3F8042DBFF34F8FBFF36F8FFFF767
:1025800023FC012005B0F0BD04F1240000F00EFE94
:102590000028F4D04FF0E0234FF08052C3F8042D10
:1025A000BFF34F8FBFF36F8FE9E7FFF70DFC0020FC
:1025B000E8E702A800F040FE012619E0002384F8B5
:1025C000443021E0002384F8453023E02046FFF723
:1025D000B6FE00F0C3FCFFF7D5FBA26BE36B9A429B
:1025E000BBD3022DB9D0019B002BDED0002EE0D052
:1025F000FFF7EAFB00F018FCFFF7C4FB94F8442057
:1026000052B2B2F1FF3FD9D094F8452052B2B2F1A4
:10261000FF3FD7D0FFF7D8FB01A902A800F018FEB2
:10262000D8B92046FFF722FE0028CFD0019904F147
:10263000100000F087FD2046FFF781FE00F08EFCC1
:102640000028C8D14FF0E0234FF08052C3F8042D8A
:10265000BFF34F8FBFF36F8FBDE72046FFF76FFECD
:1026600000F07CFC00208DE72DE9F84390B10F4687
:1026700016461C460546B1B1022C20D1EB6B012B4E
:102680001DD04FF0500383F31188BFF36F8FBFF35A
:102690004F8FFEE74FF0500383F31188BFF36F8F26
:1026A000BFF34F8FFEE7036C002BE5D04FF05003D4
:1026B00083F31188BFF36F8FBFF34F8FFEE7FFF7F0
:1026C00087FCEFF311894FF0500383F31188BFF3B8
:1026D0006F8FBFF34F8FAA6BEB6B9A4206D3022C1E
:1026E00004D0002089F31188BDE8F88395F845806F
:1026F0004FFA88F8AB6B224639462846FFF7D2FDE1
:10270000B8F1FF3F06D008F101035BB285F8453010
:102710000120E7E76B6A0BB90120E3E705F124002C
:1027200000F044FD18B126B101203060DAE7012045
:10273000D8E70120D6E7F0B585B0019290B10F46F9
:102740000446C1B100F0CCFD064600BB019B002B46
:102750005ED04FF0500383F31188BFF36F8FBFF348
:102760004F8FFEE74FF0500383F31188BFF36F8F55
:10277000BFF34F8FFEE7036C002BE3D04FF0500305
:1027800083F31188BFF36F8FBFF34F8FFEE70026EF
:102790003EE039462046FFF7C0FD013DA5632369B1
:1027A00023B9FFF711FB012005B0F0BD04F11000C3
:1027B00000F0FCFC0028F4D04FF0E0234FF08052F2
:1027C000C3F8042DBFF34F8FBFF36F8FE9E7FFF717
:1027D000FBFA0020E8E702A800F02EFD012621E028
:1027E000002384F8443029E0002384F845302BE0AE
:1027F0002046FFF7A4FD00F0B1FB09E02046FFF7FB
:102800009EFD00F0ABFB2046FFF73FFD00283FD1C7
:10281000FFF7B8FAA56B002DBBD1019B002BD6D0DA
:10282000002ED8D0FFF7D0FA00F0FEFAFFF7AAFA90
:1028300094F844305BB2B3F1FF3FD1D094F8453007
:102840005BB2B3F1FF3FCFD0FFF7BEFA01A902A8F8
:1028500000F0FEFC0028D1D12046FFF716FD00282D
:10286000C6D0019904F1240000F06CFC2046FFF76B
:1028700066FD00F073FB0028CAD14FF0E0234FF053
:102880008052C3F8042DBFF34F8FBFF36F8FBFE7A4
:10289000002089E70023072B0CD8074A52F8332081
:1028A0000AB10133F7E7044A42F8331002EBC303DD
:1028B00058607047704700BF4878002070B50446E4
:1028C0000D461646FFF75EFA94F844305BB2B3F15A
:1028D000FF3F0DD094F845305BB2B3F1FF3F0BD012
:1028E000FFF772FAA36B5BB12046FFF728FD70BDBE
:1028F000002384F84430EDE7002384F84530EFE707
:102900003246294604F1240000F034FCECE70000D4
:10291000084B1B681B6823B9074B4FF0FF321A6046
:102920007047044B1B68DB68DB685A68024B1A600F
:10293000704700BF8C780020607900202DE9F047B7
:1029400007469846089DDDF824900A9C266B02F104
:102950008042013A06EB820626F00706002968D07D
:102960008E464FF0000CBCF10F0F0BD81EF80C2058
:1029700004EB0C0383F834201EF80C3013B10CF177
:10298000010CF0E7002384F84330062D00D906251A
:10299000E56265644FF0000AC4F848A0201DFFF707
:1029A0004BF904F11800FFF747F92461C5F1070559
:1029B000A5616462C4F878A484F87CA44FF48562AD
:1029C000514604F1500000F041FF04F54F73636578
:1029D00004F56973A36504F20C43E3650122002347
:1029E000C4E93E2343F20E33A4F800314AF6CD3356
:1029F000A4F8023141F23423A4F804314EF26D639D
:102A0000A4F806314DF6EC63A4F808310523A4F8C8
:102A10000A310B23A4F80C31424639463046FFF701
:102A200083F92060B9F1000F01D0C9F80040BDE87A
:102A3000F087002384F83430A7E7000038B500247D
:102A400007E004EB840293000E481844FFF7E9F80E
:102A50000134062CF5D90C4D2846FFF7E2F80B4C53
:102A60002046FFF7DEF80A48FFF7DBF80948FFF7D2
:102A7000D8F80948FFF7D5F8084B1D60084B1C60D3
:102A800038BD00BF947800203479002048790020B8
:102A90006C79002098790020847900208C780020BF
:102AA0009078002010B50446FFF76CF9214A1368AE
:102AB00001331360204B1B685BB1204B1B686BB963
:102AC0001D4B1B68DA6AE36A9A4207D81A4B1C60EE
:102AD00004E0194B1C601368012B28D0184A1368B6
:102AE00001331360E06A01238340164A11680B43E7
:102AF000136000EB8000211D134B03EB8000FFF7F8
:102B00009EF8FFF761F90D4B1B687BB10A4B1B6800
:102B1000DA6AE36A9A4209D24FF0E0234FF080521A
:102B2000C3F8042DBFF34F8FBFF36F8F10BDFFF7B6
:102B300085FFD3E720790020887800208079002065
:102B40002C790020307900209478002010B50446BC
:102B5000503000F0F1FE94F87D3463B1012B11D0B8
:102B6000022B0ED04FF0500383F31188BFF36F8F09
:102B7000BFF34F8FFEE7206BFFF73AFB2046FFF7CE
:102B800037FB10BD2046FFF733FBFAE70F4B1B68FE
:102B9000D3B110B5FFF7F6F80D4BDB68DC68201DEC
:102BA000FFF771F80B4A1368013B1360074A13687B
:102BB000013B1360FFF708F92046FFF7C7FF034BFF
:102BC0001B68002BE6D110BD704700BF24790020A0
:102BD000987900202079002008B5FFF7D7FF074B30
:102BE0001B68012BF9D94FF0E0234FF08052C3F856
:102BF000042DBFF34F8FBFF36F8FEEE79478002063
:102C000070B504460D461D4B1E681D4B18680430F8
:102C1000FFF739F850B91A4B1B68DA6A012303FA37
:102C200002F218490B6823EA02030B60B4F1FF3F7C
:102C30000DD03444124B1B685C60A64210D9124B75
:102C400018680F4B19680431FFF704F870BD002DA8
:102C5000EFD00B4B196804310C48FEF7F0FFF5E795
:102C60000B4B1868064B19680431FEF7F3FF094B4C
:102C70001B68A342EAD9074B1C60E7E7AC79002048
:102C80008878002030790020907800208479002016
:102C90008C7800206079002030B587B00B9C8CB117
:102CA0000C9DC5B14FF490650495049DB5F5906FEA
:102CB0001AD04FF0500383F31188BFF36F8FBFF327
:102CC0004F8FFEE74FF0500383F31188BFF36F8FF0
:102CD000BFF34F8FFEE74FF0500383F31188BFF32C
:102CE0006F8FBFF34F8FFEE7049D0C9D2C63022472
:102CF00085F87D4400240394029505AC01940A9C58
:102D00000094FFF71BFE0C98FFF7CCFE059807B068
:102D100030BD2DE9F04385B00746884614461E466F
:102D20009000FFF7E7F908B381464FF49060FFF792
:102D3000E1F90546B0B1C0F83090E5B1002385F85F
:102D40007D34039302950D9B01930C9B00933346B6
:102D5000224641463846FFF7F1FD2846FFF7A2FE1E
:102D6000012005E04846FFF743FAE6E74FF0FF3061
:102D700005B0BDE8F0834FF0FF30F9E710B588B03B
:102D800000240594069407AA06A905A8FDF71CFDD2
:102D9000059B0293069B019300942346079A1A49C8
:102DA0001A48FFF779FF1A4B186040B100F06EFB2C
:102DB000012806D0B0F1FF3F1DD008B010BD0020A3
:102DC000F6E74FF0500383F31188BFF36F8FBFF323
:102DD0004F8F104B1B6850330F4A13600F4B4FF04F
:102DE000FF321A600E4B01221A600E4B00221A604D
:102DF000FFF762F8E1E74FF0500383F31188BFF368
:102E00006F8FBFF34F8FFEE7103E0008D92B0008ED
:102E10005C79002088780020100000206079002074
:102E200080790020AC790020024A136801331360D6
:102E3000704700BF28790020014B1868704700BF19
:102E4000AC790020F8B53A4B1B68002B69D1394B9F
:102E50001D6801351D60C5B9374B1B681B6843B140
:102E60004FF0500383F31188BFF36F8FBFF34F8F81
:102E7000FEE7314A1168314B186810601960304A1A
:102E8000136801331360FFF743FD2E4B1B68AB4201
:102E90003DD900272C4B1B68DB6A03EB83039A00A8
:102EA0002A4B9B58012B00D90127294B1B68002B6B
:102EB0003CD001273AE001271F4B1B681B6843B336
:102EC0001D4B1B68DB68DC6863689D4226D3261DAA
:102ED0003046FEF7D8FEA36A1BB104F11800FEF7D6
:102EE000D2FEE36A01229A401A49086802430A6046
:102EF00003EB83039A00314614481044FEF79FFE0B
:102F0000E26A114B1B68DB6A9A42D4D2D4E70027ED
:102F1000D2E70C4B4FF0FF321A60BBE7094A13604F
:102F2000B8E70D4A13680133136000273846F8BD2F
:102F300028790020AC7900208C780020907800203F
:102F4000647900206079002088780020947800203F
:102F5000B0790020307900206879002038B5354BF1
:102F60001B6843B94FF0500383F31188BFF36F8F91
:102F7000BFF34F8FFEE7FEF705FF2E4B1A68013AAD
:102F80001A601B68002B4FD12B4B1B680BB9002418
:102F90004BE00024294B1B681BB3284BDB68DC6823
:102FA00004F11800FEF76FFE251D2846FEF76BFEA4
:102FB000E06A01238340224A11680B43136000EB4F
:102FC000800029461F4B03EB8000FEF738FEE26AC3
:102FD0001D4B1B68DB6A9A42DCD31C4B01221A6032
:102FE000D8E70CB1FFF794FC194B1C6884B9174B58
:102FF0001C68D4B14FF0E0234FF08052C3F8042D89
:10300000BFF34F8FBFF36F8F01240EE0013C07D059
:10301000FFF718FF0028F9D00C4B01221A60F5E7E2
:103020000B4B00221A60E2E70024FEF7CDFE20469B
:1030300038BD00BF28790020207900206C7900205D
:10304000307900209478002088780020B079002022
:103050006879002010B5A8B10446104B1B6843B135
:103060004FF0500383F31188BFF36F8FBFF34F8F7F
:10307000FEE7FFF7D9FE00212046FFF7C1FDFFF76D
:103080006DFF48B94FF0E0234FF08052C3F8042D94
:10309000BFF34F8FBFF36F8F10BD00BF28790020A3
:1030A000224B1B681BB1224B01221A607047204B38
:1030B00000221A601F4B1B68B3FA83F3DBB2C3F123
:1030C0001F0303EB83018A001B498A5842B94FF062
:1030D000500383F31188BFF36F8FBFF34F8FFEE769
:1030E000154903EB830082000A4450684068506031
:1030F00003EB830C4FEA8C020832114488420DD056
:1031000003EB83039A000C4B13445B68DA680B4BA8
:103110001A601B6850330A4A136070474068624661
:103120009100054A0A445060EAE700BF2879002070
:10313000B079002030790020947800208878002031
:103140001000002058B110B50C46094A116818311A
:10315000FEF780FD01212046FFF752FD10BD4FF024
:10316000500383F31188BFF36F8FBFF34F8FFEE7D8
:103170008878002038B570B10D4614460A4A1168A7
:103180001831FEF75CFD0CB14FF0FF3521462846A3
:10319000FFF736FD38BD4FF0500383F31188BFF3BE
:1031A0006F8FBFF34F8FFEE78878002038B5C36874
:1031B000DC6824B304F118052846FEF764FD184BBB
:1031C0001B682BBB251D2846FEF75DFDE06A012329
:1031D0008340144A11680B43136000EB80002946BA
:1031E000114B03EB8000FEF72AFDE26A0F4B1B68D0
:1031F000DB6A9A4211D901200D4B186038BD4FF09F
:10320000500383F31188BFF36F8FBFF34F8FFEE737
:1032100029460848FEF713FDE7E70020EEE700BF68
:1032200028790020307900209478002088780020C8
:10323000B07900206C790020034B1B680360034BBE
:103240001B684360704700BF64790020AC790020A0
:10325000F8B5C8B10C460546F9B1FEF793FD1B4B16
:1032600019686B68C81A2268B2F1FF3F26D0184E61
:1032700036682F68B74201D08B4224D9824215D8D4
:103280000023236001241AE04FF0500383F31188D8
:10329000BFF36F8FBFF34F8FFEE74FF0500383F301
:1032A0001188BFF36F8FBFF34F8FFEE75B1A134494
:1032B00023602846FFF7C0FF002400E00024FEF74B
:1032C00083FD2046F8BD0124F9E700BFAC7900205A
:1032D00064790020014B01221A607047B079002008
:1032E000054B1B6833B1054B1B680BB100207047C1
:1032F0000220704701207047807900202879002043
:1033000000284CD038B50446274B1B68834208D0B0
:103310004FF0500383F31188BFF36F8FBFF34F8FCC
:10332000FEE7836C43B94FF0500383F31188BFF37A
:103330006F8FBFF34F8FFEE7013B8364C16A426C1E
:1033400091422ED00BB1002038BD051D2846FEF756
:103350009AFC70B9E26A02EB82039B001349CB58D6
:103360003BB9012303FA02F211490B6823EA020375
:103370000B60606CE062C0F10703A361012404FAF2
:1033800000F30B4A11680B43136000EB80002946E1
:10339000064B03EB8000FEF752FC2046D4E70020EA
:1033A00070470020D0E700BF887800209478002084
:1033B00030790020064B1A6813682BB9012303608B
:1033C00023B9D368186870470023F8E700207047D6
:1033D000B479002008B54160006191420CD8D21A3E
:1033E00083699A4201D3012008BD011D094B186869
:1033F000FEF730FC0020F7E79A4201D2994206D24C
:10340000011D054B1868FEF725FC0020ECE70120A4
:10341000EAE700BFB8790020B479002030B583B066
:10342000FEF7B0FC114B1B681BB1FEF7CDFC03B0DF
:1034300030BD0F4D2846FEF7F4FB0E4C2046FEF73C
:10344000F0FB0D4B1D600D4B1C60002300930C4BDB
:103450000C4A0C210A20FEF7F9FF044B18600028E3
:10346000E3D00949FFF716FADFE700BFA87A00208A
:10347000347A0020487A0020B4790020B8790020FE
:10348000607A0020BC790020183E000810B588B092
:10349000FFF7C4FF124B1B68CBB1002405940694C0
:1034A00007AA06A905A8FDF79BF9059B0293069BB1
:1034B0000193022300932346079A0A490A48FFF71B
:1034C000EBFB0A4B186010B1012008B010BD4FF0A3
:1034D000500383F31188BFF36F8FBFF34F8FFEE765
:1034E000A87A0020203E0008E1370008AC7A0020CE
:1034F000B8B19C4603461848006858B300B585B07B
:1035000001910292039305291CDCFFF7E9FE0228D2
:1035100010D000231A4601A90F480068FEF7E0FF0B
:1035200015E04FF0500383F31188BFF36F8FBFF3A3
:103530004F8FFEE70023069A01A907480068FEF7AF
:10354000CFFF04E00023624601A9FFF78DF805B024
:103550005DF804FB00207047A87A002070B582B0A7
:103560001B4B1B681A6862B3DB681E68DC68251D8C
:103570002846FEF788FB236A2046984794F82430B3
:1035800013F0040FECD0A36933449E4207D263606A
:10359000246129460E4B1868FEF75CFBE0E700212A
:1035A00000910B4632462046FFF7A2FF0028D7D1F4
:1035B0004FF0500383F31188BFF36F8FBFF34F8F2A
:1035C000FEE7044A106802490860136002B070BD4B
:1035D000B4790020B879002038B50546FFF72CFCF7
:1035E0000446074B1B68834205D800232B60044B1D
:1035F0001C60204638BDFFF7B1FF01232B60F6E7C2
:103600005C7A002070B582B006460D4617490968FD
:10361000C968CC68201DFEF736FB94F824C01CF066
:10362000040F08D12CF0010C84F824C0236A204632
:10363000984702B070BDA16933462A4631442046FE
:10364000FFF7C8FE0028F1D0002100910B4632465A
:103650002046FFF74DFF0028E8D14FF0500383F3D9
:103660001188BFF36F8FBFF34F8FFEE7B47900204F
:1036700070B582B006460C46FFF7D6FB01A8FFF7EF
:10368000ABFF019B33BB05460CB9B04219D224B144
:10369000124A12681268DAB901242246711B104BD3
:1036A0001868FFF70BF9FFF759FCA8B94FF0E023B2
:1036B0004FF08052C3F8042DBFF34F8FBFF36F8FCD
:1036C0000AE0FFF74BFC29463046FFF79BFF03E07B
:1036D0001C46E2E7FFF742FC02B070BDB87900205B
:1036E000A87A002010B586B0002203A93B4B1868C9
:1036F000FFF721F800286ED0039B002BF4DB059C1C
:10370000636913B1201DFEF7BEFA02A8FFF764FF3C
:10371000039B092BE8D8DFE803F005050530375097
:103720000505303794F8243043F0010384F8243041
:10373000049BA169024619442046FFF74BFE00286E
:10374000D2D0236A2046984794F8243013F0040F0F
:10375000CAD0A269002100910B4604980244204679
:10376000FFF7C6FE0028BFD14FF0500383F3118846
:10377000BFF36F8FBFF34F8FFEE794F8243023F031
:10378000010384F82430AFE794F8243043F00103B8
:1037900084F824300499A16131B103460246014402
:1037A0002046FFF717FE9FE74FF0500383F3118881
:1037B000BFF36F8FBFF34F8FFEE794F8243013F001
:1037C000020F04D023F0010384F824308CE7204654
:1037D000FEF70EFD88E706B010BD00BFA87A0020F6
:1037E00000B583B001A8FFF7E5FD0199FFF740FFA1
:1037F000FFF778FFF6E70000014B1868704700BF3D
:103800001000002070B50D4E0D4D761BB61006D081
:10381000002455F8043B01349847A642F9D1094EDB
:10382000094D761B00F0B4FAB61006D0002455F806
:10383000043B01349847A642F9D170BD343E0008DC
:10384000343E00083C3E0008343E0008830730B593
:1038500048D0541E002A3FD0CAB2034601E0013CC2
:103860003AD303F8012B9D07F9D1032C2DD9CDB202
:1038700045EA05250F2C45EA054536D9A4F1100285
:1038800022F00F0C03F1200EE6444FEA121C03F164
:10389000100242E9045542E9025510327245F8D14E
:1038A0000CF1010214F00C0F03EB021204F00F0CE8
:1038B00013D0ACF1040323F003030433134442F8A0
:1038C000045B9342FBD10CF003042CB1CAB21C443C
:1038D00003F8012B9C42FBD130BD64461346002CFB
:1038E000F4D1F9E703461446BFE71A46A446E0E7D9
:1038F0002DE9F0410E680C460546BEB137688FB120
:10390000D7F80080B8F1000F08D0D8F8001009B13E
:10391000FFF7EEFF4146284600F0CCF8394628462E
:1039200000F0C8F83146284600F0C4F82146284681
:10393000BDE8F04100F0BEB8224B1B68834240D086
:10394000C16C70B5054681B100268C593CB1214649
:103950002468284600F0AEF8002CF8D1E96C043653
:10396000802EF2D1284600F0A5F8296C11B1284626
:1039700000F0A0F8D5F8484154B105F5A676B44258
:1039800006D021462468284600F094F8A642F8D1D3
:10399000696D11B1284600F08DF8AB6B83B1EB6B0C
:1039A00028469847D5F8E04254B1216811B128461D
:1039B000FFF79EFF21462846BDE8704000F07AB828
:1039C00070BD704710000020024B13B1024800F098
:1039D00005B8704700000000E939000800230146DF
:1039E0001A46184600F08EB938B5084B084D5B1BD7
:1039F0009C1007D0043B1D44013C55F804399847FE
:103A0000002CF9D1BDE8384000F0C8B9403E0008AC
:103A10003C3E0008F8B5244F0C46064600F054F929
:103A2000BA685568C4F57E630F3325F003052B444F
:103A300023F47F6323F00F03A3F58054B4F5805F74
:103A400007DB0021304600F04BF9BB682B4498425D
:103A500004D0304600F03EF90020F8BD6142304607
:103A600000F03EF901300DD0104ABB682D1B45F027
:103A700001055D60136830461B1B136000F02AF9D6
:103A80000120F8BD0021304600F02AF9BA68831AF7
:103A90000F2BDEDD43F001035360054B03491B6828
:103AA000C01A0860D5E700BF44040020BC7A00209B
:103AB0004C080020002961D0F8B50C46064600F0FD
:103AC00003F954F8042C7B4FA4F1080522F00101FE
:103AD00005EB010CB868DCF80430604523F0030303
:103AE00000F08B80D207CCF8043032D454F8082C84
:103AF000AD1A1144AA6807F1080082426AD00CEBA3
:103B00000304D4F804E0EC68D4601EF0010FA26056
:103B100000F0978041F001036B60CCF80010B1F524
:103B2000007F35D27A68CB084809012101338140F2
:103B30001143796007EBC30257F83310083AC5E91F
:103B4000021247F83350CD603046BDE8F84000F02F
:103B5000C1B80CEB03025268D00710D4194407F126
:103B60000800DCF80830834273D0DCF80C20DA60FF
:103B7000936041F001036B606950D0E7704741F0FA
:103B80000103B1F5007F44F8043CCCF80010C9D320
:103B9000B1F5206F4FEA512348D28B0903F1390068
:103BA00003F13802C300F818FB580838984259D07E
:103BB0005A6822F003028A4202D99B689842F7D1E0
:103BC000D868C5E902308560DD603046BDE8F84060
:103BD00000F080B80CEB03025268D20763D40B44A8
:103BE000DCE90212CA60916043F001026A6030466B
:103BF000EB50BDE8F84000F06DB80B44D10707D496
:103C000054F8082CAD1A1344D5E90212CA60916029
:103C100043F001026A60284ABD6012689A4293D854
:103C2000264B30461968FFF7F5FE8DE7142B0AD9AD
:103C3000542B1FD80B0B03F16F0003F16E02C3006E
:103C4000B1E719448DE703F15C0003F15B02C300A7
:103C5000A9E741F00103C7E90455C5E902006B601B
:103C6000695071E779689210012404FA02F20A435C
:103C70007A60A6E7B3F5AA7F06D8CB0B03F17800EC
:103C800003F17702C3008EE740F25452934206D804
:103C90008B0C03F17D0003F17C02C30083E74FF43A
:103CA0007E737E227FE741F001036B60CCF8001049
:103CB0004AE700BF4404002050080020E47A0020B6
:103CC000704700BF704700BF0148FFF7F9BF00BF52
:103CD000B87A00200148FFF7F5BF00BFB87A00208E
:103CE00038B5074D0022044608462A60FCF7E0FE7E
:103CF000431C00D038BD2B68002BFBD0236038BD9F
:103D0000B07A00202DE9F047DFF880A00646DAF807
:103D1000000098460F469146FFF7D2FF1A4B1B68EA
:103D2000D3F8484124B365681F2D26DC5EB96B1CAF
:103D30000235DAF80000636044F82570FFF7C2FF2F
:103D40000020BDE8F08704EB85010123C1F88890CD
:103D5000D4F88821AB401A43022EC4F88821C1F858
:103D60000881E4D1D4F88C211343C4F88C31DEE708
:103D700003F5A674C3F84841D5E7DAF80000FFF769
:103D8000A1FF4FF0FF30DCE7283E00084004002090
:103D9000F8B500BFF8BC08BC9E467047F8B500BF38
:083DA000F8BC08BC9E46704708
:103DA800E03D0008B5070008000000000000000022
:103DB800800000000000000000000000EC3D00084A
:103DC800BF0700080200000000000000800000009B
:103DD800000000000000000064656661756C7454A2
:103DE80061736B006D795461736B303200000000B1
:103DF8000000000000000000010203040607080993
:103E0800000000000102030449444C450000000082
:103E1800546D725100000000546D72205376630097
:043E2800180000205E
:083E2C00D4C3FF7F0100000078
:083E3400C9390008B5010008BE
:043E3C0091010008E8
:103E40000024F4000100000010000000AAAAAAAAA1
:103E50001800002000000000000000000403002003
:103E60006C030020D40300200000000000000000CC
:103E70000000000000000000000000000000000042
:103E80000000000000000000000000000000000032
:103E90000000000000000000000000000000000022
:103EA0000000000000000000000000000000000012
:103EB0000000000000000000000000000000000002
:103EC00000000000000000000000000000000000F2
:103ED00000000000000000000000000000000000E2
:103EE00000000000000000000000000000000000D2
:103EF00000000000000000000000000000000000C2
:103F000001000000000000000E33CDAB34126DE65E
:103F1000ECDE05000B0000000000000000000000C7
:103F20000000000000000000000000000000000091
:103F30000000000000000000000000000000000081
:103F40000000000000000000000000000000000071
:103F50000000000000000000000000000000000061
:10428000B47A002000000000000000004404002078
:10429000440400204C0400204C040020540400205E
:1042A000540400205C0400205C040020640400200E
:1042B000640400206C0400206C04002074040020BE
:1042C000740400207C0400207C040020840400206E
:1042D000840400208C0400208C040020940400201E
:1042E000940400209C0400209C040020A4040020CE
:1042F000A4040020AC040020AC040020B40400207E
:10430000B4040020BC040020BC040020C40400202D
:10431000C4040020CC040020CC040020D4040020DD
:10432000D4040020DC040020DC040020E40400208D
:10433000E4040020EC040020EC040020F40400203D
:10434000F4040020FC040020FC04002004050020EC
:10435000040500200C0500200C0500201405002099
:10436000140500201C0500201C0500202405002049
:10437000240500202C0500202C05002034050020F9
:10438000340500203C0500203C05002044050020A9
:10439000440500204C0500204C0500205405002059
:1043A000540500205C0500205C0500206405002009
:1043B000640500206C0500206C05002074050020B9
:1043C000740500207C0500207C0500208405002069
:1043D000840500208C0500208C0500209405002019
:1043E000940500209C0500209C050020A4050020C9
:1043F000A4050020AC050020AC050020B405002079
:10440000B4050020BC050020BC050020C405002028
:10441000C4050020CC050020CC050020D4050020D8
:10442000D4050020DC050020DC050020E405002088
:10443000E4050020EC050020EC050020F405002038
:10444000F4050020FC050020FC05002004060020E7
:10445000040600200C0600200C0600201406002094
:10446000140600201C0600201C0600202406002044
:10447000240600202C0600202C06002034060020F4
:10448000340600203C0600203C06002044060020A4
:10449000440600204C0600204C0600205406002054
:1044A000540600205C0600205C0600206406002004
:1044B000640600206C0600206C06002074060020B4
:1044C000740600207C0600207C0600208406002064
:1044D000840600208C0600208C0600209406002014
:1044E000940600209C0600209C060020A4060020C4
:1044F000A4060020AC060020AC060020B406002074
:10450000B4060020BC060020BC060020C406002023
:10451000C4060020CC060020CC060020D4060020D3
:10452000D4060020DC060020DC060020E406002083
:10453000E4060020EC060020EC060020F406002033
:10454000F4060020FC060020FC06002004070020E2
:10455000040700200C0700200C070020140700208F
:10456000140700201C0700201C070020240700203F
:10457000240700202C0700202C07002034070020EF
:10458000340700203C0700203C070020440700209F
:10459000440700204C0700204C070020540700204F
:1045A000540700205C0700205C07002064070020FF
:1045B000640700206C0700206C07002074070020AF
:1045C000740700207C0700207C070020840700205F
:1045D000840700208C0700208C070020940700200F
:1045E000940700209C0700209C070020A4070020BF
:1045F000A4070020AC070020AC070020B40700206F
:10460000B4070020BC070020BC070020C40700201E
:10461000C4070020CC070020CC070020D4070020CE
:10462000D4070020DC070020DC070020E40700207E
:10463000E4070020EC070020EC070020F40700202E
:10464000F4070020FC070020FC07002004080020DD
:10465000040800200C0800200C080020140800208A
:10466000140800201C0800201C080020240800203A
:10467000240800202C0800202C08002034080020EA
:10468000340800203C0800203C080020FFFFFFFF0A
:044690000000020024
:0400000508000B0DD7
:00000001FF
