:020000040800F2
:1000000050700020E90200087F1600086315000800
:100010007D160008CB050008351800080000000018
:10002000000000000000000000000000290200089D
:10003000E505000800000000850200089116000890
:100040000303000803030008030300080303000878
:100050000303000803030008030300080303000868
:100060000303000803030008030300080303000858
:100070000303000803030008030300080303000848
:100080000303000803030008030300080303000838
:10009000CD0500080303000803030008030300085C
:1000A00003030008611700080303000803030008A6
:1000B0000303000803030008030300080303000808
:1000C00003030008030300080303000803030008F8
:1000D00003030008030300080303000803030008E8
:1000E00003030008030300080303000803030008D8
:1000F00003030008030300080303000803030008C8
:1001000003030008030300080303000803030008B7
:1001100003030008030300080303000803030008A7
:100120000303000803030008030300080303000897
:100130000303000803030008030300080303000887
:10014000D90500080303000803030008030300089F
:100150000303000803030008030300080303000867
:100160000303000803030008030300080303000857
:100170000303000803030008030300080000000055
:10018000030300080303000800F002F800F03CF845
:100190000AA090E8000C82448344AAF10107DA45E2
:1001A00001D100F031F8AFF2090EBAE80F0013F0F8
:1001B000010F18BFFB1A43F001031847342E00004B
:1001C000542E0000103A24BF78C878C1FAD85207DC
:1001D00024BF30C830C144BF04680C6070470000C1
:1001E0000023002400250026103A28BF78C1FBD840
:1001F000520728BF30C148BF0B6070471FB502F0DF
:10020000BDFE1FBD10B510BD00F0A6F91146FFF7E9
:10021000F5FF01F020FB00F0C4F903B4FFF7F2FF93
:1002200003BC00F0CBF900002C4B19680868B0E85B
:10023000F04F80F30988BFF36F8F4FF0000080F319
:10024000118870470000000008480068006880F3CB
:1002500008884FF0000080F3148862B661B6BFF3DF
:100260004F8FBFF36F8F00DF00BF00BF08ED00E0CE
:10027000DFF80C00016841F470010160704700BFB5
:1002800088ED00E0EFF30980BFF36F8F134B1A681E
:100290001EF0100F08BF20ED108A20E9F04F10600B
:1002A00009B44FF0500080F31188BFF34F8FBFF3B4
:1002B0006F8F02F043F94FF0000080F3118809BC02
:1002C00019680868B0E8F04F1EF0100F08BFB0ECD6
:1002D000108A80F30988BFF36F8F70471C000020DD
:1002E000EFF3058070470000094880470948004740
:1002F000FEE7FEE7FEE7FEE7FEE7FEE7FEE7FEE7D6
:10030000FEE7FEE704480549054A064B7047000032
:100310005117000889010008506A00205070002021
:10032000506C0020506C002053EA020C00F06980F1
:100330002DE9F04B4FF00006002B1FBFB3FA83F5F9
:1003400003FA05F424FA05F65E4012BF1643B2FA2A
:1003500082F502FA05F4C5F120051EBF22FA05FC5C
:1003600044EA0C04203556EA044C4FEA144418BF02
:10037000641C4FF000084FF00009904271EB030C31
:1003800039D3002919BFB1FA81F701FA07F6B0FA9B
:1003900080F700FA07F6C7F120071EBF20FA07FC16
:1003A00046EA0C062037B6FBF4FCA7EB0507103F26
:1003B00007F01F0BCBF120060CFA0BFB2CFA06F60C
:1003C00044BFB3460026202FA4BF5E464FF0000B6B
:1003D0005BEA060C08BF4FF0010B19EB0B09ABFBF6
:1003E000027C48EB0608C01B06FB02CC0BFB03CCCF
:1003F00071EB0C01C1E70B46024641464846BDE899
:10040000F08B13B54FF000004FF00001AFF3008008
:10041000BDE81C407047032A40F2308010F0030C06
:1004200000F0158011F8013BBCF1020F624498BF47
:1004300011F801CB00F8013B38BF11F8013BA2F1E4
:10044000040298BF00F801CB38BF00F8013B11F05F
:10045000030300F02580083AC0F0088051F8043BFF
:10046000083A51F804CBA0E80810F5E7121D5CBF6C
:1004700051F8043B40F8043BAFF30080D20724BF9F
:1004800011F8013B11F801CB48BF11F8012B24BF33
:1004900000F8013B00F801CB48BF00F8012B704782
:1004A00010B5203AC0F00B80B1E81850203AA0E80F
:1004B0001850B1E81850A0E81850BFF4F5AF5FEA43
:1004C000027C24BFB1E81850A0E8185044BF18C9F6
:1004D00018C0BDE810405FEA827C24BF51F8043B9D
:1004E00040F8043B08BF7047D20728BF31F8023BF1
:1004F00048BF11F8012B28BF20F8023B48BF00F885
:10050000012B70474FF0000200B513469446964603
:10051000203922BFA0E80C50A0E80C50B1F1200116
:10052000BFF4F7AF090728BFA0E80C5048BF0CC0C4
:100530005DF804EB890028BF40F8042B08BF704722
:1005400048BF20F8022B11F0804F18BF00F8012B94
:100550007047704770477047754600F02BF8AE46FD
:1005600005006946534620F00700854618B020B5BF
:10057000FFF7C8FEBDE820404FF000064FF000072F
:100580004FF000084FF0000B21F00701AC46ACE83B
:10059000C009ACE8C009ACE8C009ACE8C0098D46A8
:1005A000704710B50446AFF300802046BDE8104008
:1005B000FFF733BE00487047F0690020014918205A
:1005C000ABBEFEE7260002007047FEE7014800F0E0
:1005D0000DB8000040070020014800F007B80000F7
:1005E00068070020704772B6FEE770472DE9F05F9C
:1005F0000546006800244669D0F804908768D0F862
:100600000CB0D0F810A0D0F81880F10748D0F90746
:1006100014D001218160B80703D5284600F0F6F90F
:100620000CE0780702D54FF4006407E0380702D5E4
:100630004FF4805402E0284600F0E7F9F80516D59B
:1006400029684FF480708860B80503D5284600F00B
:10065000DFF90CE0780502D544F4005407E03805D2
:1006600002D544F4804402E0284600F0D0F9F803B3
:1006700016D529684FF480308860B80303D5284622
:1006800000F0C8F90CE0780302D544F4004407E018
:10069000380302D544F4803402E0284600F0B9F96A
:1006A000300707D55FEACB6004D52968102044F4F1
:1006B0000074C86070074FF0080707D55FEA0B7039
:1006C00004D52868C760284600F09AF9B00706D517
:1006D0002868C068800702D0284600F092F97006AA
:1006E00007D55FEACA6004D52968102044F4806405
:1006F0000861B00607D55FEA0A7004D5286807616B
:10070000284600F07FF9F00606D5286800698007C2
:1007100002D0284600F077F9B00308D55FEAC96037
:1007200005D5296810204860284600F06DF9F003CF
:1007300007D55FEA097004D528684760284600F0AD
:100740006AF9300446D55FEA497040D5F00504D512
:100750005FEAC87001D044F00104B00504D55FEA37
:10076000887001D544F00204700504D55FEA487032
:1007700001D544F00404300529D518F0700F26D0B7
:1007800008F07000402815D006DC102809D0202879
:100790000AD0302816D10AE050280ED0602811D196
:1007A0000EE044F008040DE044F010040AE044F0C8
:1007B000200407E044F0400404E044F0800401E039
:1007C00044F480742868816921F07001816129688E
:1007D00004204860002C05D0686A204368622846DF
:1007E000FFF703FFBDE8F09F70B5040003D094F855
:1007F000200010B104E0012070BD204600F082F816
:100800002068016841F00101016000F0FDF9054632
:10081000052604E000F0F8F9401B0A2811D82068EA
:100820004068C007F6D02068016821F0020101602D
:1008300000F0EAF905460BE000F0E6F9401B0A2853
:1008400006D9606A40F40030606284F82060D2E724
:10085000206840688007EFD4207E01282068016866
:100860003DD021F080010160607E01282068016890
:1008700038D021F040010160A07E01282068016885
:1008800033D021F020010160E07E0128206801685A
:100890002ED041F010010160207F012820680168FE
:1008A00029D021F008010160607F012820680168DB
:1008B00024D021F004010160D4E902010843D4E905
:1008C0000412114308436168491E08432168C86146
:1008D00000206062012084F82000002070BD41F0FB
:1008E0008001C0E741F04001C5E741F02001CAE7BF
:1008F00021F01001CFE741F00801D4E741F00401F5
:10090000D9E70000F0B587B0044614216846FFF728
:10091000F9FD364B3648DFF8D0E01968D4F800C04E
:10092000334A03250226092710300024491CF445C8
:1009300022D11960012907D1016841F000710160DD
:10094000006800F000700590106840F0080010602A
:100950001068CDE9005600F00800CDE90470694642
:100960002448CDE9024500F057F800220521142063
:1009700000F0E2F9142032E0DFF87CE0F44530D1F9
:10098000D0F800C04CF0806CC0F800C0D0F800C0B7
:1009900001290CF0806CCDF814C0196007D10168F2
:1009A00041F000710160006800F00070059010686F
:1009B00040F002001060106802AB00F002000590E9
:1009C0006020CDE9000683E8B00069460B4800F0DE
:1009D00023F800220521402000F0AEF9402000F06D
:1009E0009DF907B0F0BD0000006400400800002041
:1009F00030380240000C0240006800400004024011
:100A0000704770477047704770477047704770472E
:100A100070477047704770472DE9F84FDFF8BCA169
:100A20000022012503264FF00F090AF1040BAAF159
:100A3000040E00BF0B6805FA02F42340A34270D1F4
:100A40000F7907F00307012F01D0022F16D1876815
:100A50004FEA420806FA08FC27EA0C07D1F80CC056
:100A60000CFA08FC4CEA070CC0F808C04768A7431A
:100A70000C79C4F3001494403C4344600C79E44383
:100A8000A4070AD0C4684FEA420C06FA0CF7BC432C
:100A90008F6807FA0CF72743C7600C7904F003044A
:100AA000022C12D1D40800EB840CDCF8204057074C
:100AB000FF0E09FA07F824EA0804D1F8108008FAB2
:100AC00007F848EA0408CCF8208004684FEA420C92
:100AD00006FA0CF7BC430F7907F0030707FA0CF787
:100AE000274307604C6814F4403F70D03C4C2768A3
:100AF00047F480472760246822F0030704F4804409
:100B00000094384C07EB040CDCF8084897074FEAD0
:100B1000177809FA08F7BC43334FB84202D10027CF
:100B200024E054E0314FB84201D101271EE0304F9C
:100B3000B84201D1022719E02E4FB84201D1032754
:100B400014E02D4FB84201D104270FE02B4FB842DB
:100B500001D105270AE02A4FB84201D1062705E056
:100B6000284FB84201D1072700E0082707FA08F705
:100B70002743CCF80878DAF800405746D1F804C08B
:100B80009C435FEACC2C00D51C433C60DBF8004062
:100B90005F46D1F804C09C435FEA8C2C00D51C430F
:100BA0003C60DEF800407746D1F804C09C435FEA21
:100BB0008C3C00D51C433C60084F083F3C68D1F892
:100BC00004C09C435FEACC3C00D51C433C60521CF3
:100BD000102AFFF42FAFBDE8F88F0000083C014059
:100BE000443802400030014000000240000402404E
:100BF00000080240000C02400010024000140240B5
:100C000000180240001C0240014880687047000044
:100C10000C0000200248816802781144816070470E
:100C20000C0000200B4810B5016841F40071016010
:100C3000016841F480610160016841F480710160E4
:100C4000032000F099F80F2000F006F800F04AF8B1
:100C5000002010BD003C024030B505461C4887B05E
:100C60000024016841F001010160006806A900F05C
:100C70000100009001A800F02BF900F049F9154996
:100C80004000B0FBF1F11548134A491E026040F2E2
:100C9000E732C0E90324C0E90114846100F032FBAB
:100CA000040012D10D4800F05BFB04000DD11920A7
:100CB00000F034F8102D07D200222946192000F048
:100CC0003BF80748056000E0012407B0204630BD2E
:100CD0004438024040420F000000014090070020CD
:100CE000100000200C4882B0016841F4804101608E
:100CF000006800F4804000900748001F016841F040
:100D0000805101600068002200F0805000900F21A7
:100D1000901E02B000F010B844380240002809DBF1
:100D200000F01F02012191404009800000F1E02005
:100D3000C0F8001170470000F0B40E4B1B680C4661
:100D4000C3F30223C3F10705042D00D90425191D9F
:100D5000072901D2002300E0DB1E012606FA05F177
:100D6000491E214099409E40761E16403143F0BCFA
:100D700000F061BD0CED00E0064900F007020868D4
:100D80004FF6FF03184040EA0220034A1043086070
:100D9000704700000CED00E00000FA052DE9F04777
:100DA0000E46050065D0DFF81481D8F80000F7B2D0
:100DB00000F00700B04207D288F80070D8F80000B1
:100DC00000F00700B04254D128683D4C810712D58D
:100DD000400703D5206840F4E050206028780007E1
:100DE00003D5206840F4604020602068A96820F0A6
:100DF000F000084320602878C0072DD0304968688B
:100E00000839012812D0022813D0032811D009680C
:100E1000890700292DDA216821F0030101432160AF
:100E2000FFF7F2FE814641F2883A0EE00968890335
:100E3000EFE709688901ECE7FFF7E6FEA0EB09019F
:100E4000514502D90320BDE8F0872068696800F0A9
:100E50000C00B0EB810FEFD1D8F80010404601F044
:100E60000701B14207D90770006800F00700B042DF
:100E700001D00120E7E72878400705D52068E96818
:100E800020F4E050084320602878000706D5206849
:100E9000296920F4604040EAC100206000F048F871
:100EA0002168084AC1F30311515CC8400649086033
:100EB00006480068FFF7D0FE0020C4E7003C02406F
:100EC00008380240C02F0008180000201000002041
:100ED0000F2202600C4A136803F003034360136897
:100EE00003F0F0038360136803F4E053C3601268F7
:100EF0004FF4E05303EAD20202610448006800F0B4
:100F0000070008607047000008380240003C0240BB
:100F10000448054900680968044AC1F34231515C3C
:100F2000C84070471800002008380240D02F000841
:100F3000154810B5006810F00C02144813D014497D
:100F4000042A0FD0082A0ED10F4C241F22682368D0
:100F500002F03F025B0207D52068C0F38810A0FBB7
:100F6000010106E0084610BD2168C1F38811A1FB0C
:100F700000010023FFF7D8F92168C1F30141491CA2
:100F80004900B0FBF1F010BD083802400024F40025
:100F9000001BB7002DE9F84F04006ED02078DFF871
:100FA0004C93C007A9F104054AD009F10400016877
:100FB000C1F38101012908D00068C0F38100022833
:100FC0000AD1D9F80000400206D52868800337D539
:100FD00060680028E1D033E06068B0F5803F10D051
:100FE000B0F5A02F286810D020F480302860286841
:100FF00020F4802028606068A8B1FFF705FE06464F
:101000000DE0286840F48030F4E740F48020286048
:10101000F7E700BFFFF7F8FD801B642873D8286846
:101020008003F7D50CE0FFF7EFFD064605E000BFB3
:10103000FFF7EAFD801B6428F0D828688003F7D406
:101040002078DFF8AC8280074FF0000A3ED5A74831
:10105000001D016811F00C0F08D00068C0F381007A
:1010600002280BD1D9F80000400207D42868800775
:1010700016D5E068012800D112E033E1E068B8B18C
:101080000120C8F80000FFF7BFFD064605E000BFDD
:10109000FFF7BAFD801B0228C0D828688007F7D563
:1010A0002868216920F0F80040EAC10028600DE0BE
:1010B000C8F800A0FFF7A8FD064604E0FFF7A4FD6E
:1010C000801B02281FD828688007F7D420780007E3
:1010D00022D5864F87486169703771B1012101605F
:1010E000FFF792FD064604E0FFF78EFD801B022805
:1010F00009D838688007F7D50EE0C0F800A0FFF7E0
:1011000083FD064605E082E0FFF77EFD801B022896
:101110007DD838688007F7D42078400768D5DFF895
:10112000CCB100270BF13C0BDBF80000C0000BD466
:10113000DBF8001041F08051CBF80010DBF8000024
:10114000012700F0805000906B4E3068C00510D42D
:10115000306840F480703060FFF756FD009005E085
:10116000FFF752FD0099401A022850D83068C00598
:10117000F6D55E4EA0686C3601280FD00528306881
:1011800010D020F001003060306820F004003060A2
:10119000A068B8B1FFF738FD00900FE0306840F06C
:1011A0000100F4E740F004003060F7E7FFF72CFDA2
:1011B0000099411A41F28830814266D83068800730
:1011C000F4D50EE0FFF720FD009007E0FFF71CFDCF
:1011D0000099411A41F28830814256D83068800720
:1011E000F4D42FB1DBF8001021F08051CBF80010BF
:1011F000A069C8B33D49091D0968C1F381010229ED
:101200004AD00228504607D0C8F8600000E03CE011
:10121000FFF7FAFC04463BE04746C8F86000FFF7DA
:10122000F3FC064605E000BFFFF7EEFC801B02283A
:101230002BD828688001F7D4D4E907010843A16AB4
:101240002E4A490802EB0141626A41EA82110843D1
:1012500094F82C1040EA0161C9F8001001203866AA
:10126000FFF7D2FC044606E03EE000BFFFF7CCFCEF
:10127000001B022809D828688001F7D534E000BF98
:10128000FFF7C2FC001B022802D90320BDE8F88F3B
:1012900028688001F4D427E00128F7D0D9F80000AD
:1012A000E26900F4800191421CD1226A00F03F0102
:1012B000914217D147F6C071626A0140B1EB821FBB
:1012C00010D1A26A4FF0FF3300F4403103EB520219
:1012D000B1EB024F06D194F82C1000F07060B0EB27
:1012E000016F01D00120D1E70020CFE70438024090
:1012F00000004742800E4742007000400000FFFFA0
:101300007047704710B5040003D094F83D0010B149
:1013100007E0012010BD002084F83C00204600F0CA
:101320001EF8022084F83D00211D206800F01EFAFE
:10133000012084F8460084F83E0084F83F0084F8D9
:10134000400084F8410084F8420084F8430084F8A7
:10135000440084F8450084F83D00002010BD70472B
:1013600090F83D10012901D001207047022180F83A
:101370003D100168CA6842F00102CA600068114964
:10138000884214D0B0F1804F11D00F4988420ED05E
:101390000E4988420BD00E49884208D00D49884238
:1013A00005D00D49884202D00C49884204D1816899
:1013B00001F00701062903D0016841F00101016035
:1013C0000020704700000140000400400008004079
:1013D000000C0040000401400040014000180040A3
:1013E000704770B50446006801694FF00005C943B5
:1013F000890715D4C168C943890711D4E91E016161
:1014000001202077206880698007204602D0FFF7FE
:10141000E7FF04E000F098F8204600F096F8257702
:1014200020680169C943490717D4C168C9434907FE
:1014300013D46FF0040101610220207720688069D5
:1014400010F4407F204602D0FFF7CAFF04E000F00E
:101450007BF8204600F079F8257720680169C943B8
:10146000090716D4C168C943090712D46FF00801EF
:101470000161042020772068C0698007204602D0DF
:10148000FFF7AEFF04E000F05FF8204600F05DF8E3
:10149000257720680169C943C90617D4C168C943C3
:1014A000C90613D46FF0100101610820207720686D
:1014B000C06910F4407F204602D0FFF791FF04E09E
:1014C00000F042F8204600F040F8257720680169D6
:1014D000C943C90708D1C168C943C90704D1891ED6
:1014E0000161204600F032F820680169C94309060D
:1014F00009D4C168C943090605D46FF080010161B0
:101500002046FFF7FDFE20680169C943490609D45A
:10151000C168C943490605D46FF040010161204606
:1015200000F01EF820680169C94389060BD4C16820
:10153000C943890607D46FF0200101612046BDE848
:101540007040FFF7DEBE70BD70477047006803490A
:10155000884201D1FFF75EBB7047000000000140E8
:101560007047FEE7104810B50E4901600321416045
:1015700000214FF410228160C0E903124FF40012E1
:1015800042610176012242768176C1760177417708
:10159000FFF72AF9002803D0BDE81040FFF723B871
:1015A00010BD00000064004040070020104810B546
:1015B0000E4901600321416000214FF41022816037
:1015C000C0E903124FF40012426101760122427613
:1015D0008176C17601774177FFF706F9002803D0BD
:1015E000BDE81040FEF7FFBF10BD000000680040DE
:1015F0006807002010B58EB01C220B496846FEF724
:101600004FFF0021684600F047F9084C06491C22AC
:1016100020601C3107A8FEF743FF002107A800F057
:101620003BF960600EB010BD882F0008000000205C
:10163000114808B5016841F002010160016801F03C
:1016400002010091016841F001010160016801F0AF
:1016500001010091016841F008010160016801F099
:1016600008010091016841F080010160006800F00C
:101670008000009008BD000030380240FEE7FEE721
:10168000012000F0FDF8FBE7012000F0F9F8FBE78E
:1016900010B5502080F31188BFF34F8FBFF36F8FC9
:1016A00001F0BEFA18B104494FF0805008600020E4
:1016B00080F3118810BD000004ED00E030B593B058
:1016C00030216846FEF71EFF14210CA8FEF71AFF12
:1016D0001D480025016841F080510160006800F05C
:1016E000805011901948016841F480410160006800
:1016F000022400F480401190012000900004019029
:101700008001CDE9064006200890A820CDE9090413
:1017100004200B906846FFF73DFC08B172B6FEE767
:101720000CA90F2081E831004FF4A0500F904FF426
:101730008050109005210CA8FFF730FB002801D045
:1017400072B6FEE713B030BD403802400070004072
:101750000248016841F470010160704788ED00E0C3
:101760000148FFF73EBE000090070020F0B5026878
:10177000254C264D264E274F274B4FF0804CA0423C
:1017800009D0604507D0A84205D0B04203D0B84286
:1017900001D0984204D122F0700E4A6842EA0E024B
:1017A000A0421BD0604519D0A84217D0B04215D036
:1017B000B84213D0984211D0184DA8420ED0184DFF
:1017C000A8420BD0174DA84208D0174DA84205D00B
:1017D000164DA84202D0164DA84203D122F44075FE
:1017E000CA682A434D6922F080022A4302608A684F
:1017F000C2620A688262A04201D0984201D109699E
:10180000016301214161F0BD00000140000400407E
:1018100000080040000C004000040140004001406E
:10182000004401400048014000180040001C0040F6
:1018300000200040FEE70907090E002804DB00F144
:10184000E02080F80014704700F00F0000F1E02065
:1018500080F8141D7047FFF7E5F9FFF72FFFFFF73A
:10186000E7FEFFF77FFEFFF7A1FEFFF7C3FE00F0E4
:101870000EF8FEE701460020842900D0C81C7047FE
:1018800010B500B9012000F0A5FD002010BD10B575
:1018900000F008FE002010BD7FB50D4604464169EA
:1018A000B0F9080081B1A16971B1FFF7E3FFD4E994
:1018B00005128DE80700D4E900102B46226901F0DB
:1018C00070F9039004B070BDFFF7D4FF03A9CDE910
:1018D0000001208A2B4682B2D4E9001001F034F9CD
:1018E000012801D00020EDE70398EBE72DE9F04156
:1018F000184C0F460546E6682068001D00F036FCCF
:1019000038B9206890F82C10012088402169814363
:101910002161681C07D137B12168BDE8F0410E484C
:10192000091D00F073BC20683544B542456021684C
:1019300005D2A06BBDE8F041091D00F04FBC606B03
:10194000091D00F04BFCA06A854200D2A562BDE8EB
:10195000F08100001C000020F40800202DE9F04177
:10196000054600F05FFC2E4CA068401CA06020687B
:101970002C4F10B1606940B32DE02560A0680128AC
:1019800029D1002606EB860007EB800000F018FC4A
:10199000761C072EF6D323488C3000F011FC21482A
:1019A000A03000F00DFC1F48B43000F009FC1D48C9
:1019B000C83000F005FC1B48DC3000F001FC194881
:1019C0008C3060631430A06305E02068E96AC06A67
:1019D000884200D82560606A401C6062E96A012084
:1019E000226988401043206101EB810007EB8000F1
:1019F000291D00F00BFC00F035FC606900280CD0BC
:101A00002068E96AC06A884207D207494FF08050CF
:101A10000860BFF34F8FBFF36F8FBDE8F081000008
:101A20001C0000201808002004ED00E038B500F08C
:101A3000F9FB104C2068C8B90F4800F0C1FB0E48F4
:101A4000143000F0BDFB0C48E060143020610A4BFC
:101A50000020C03B009003F148020C210A2000F056
:101A600015FE206010B105A100F07EFCBDE83840F5
:101A700000F0F8BB58000020C8090020546D7251D6
:101A80000000000030B4026C0B46002A0BD0C16885
:101A90001144C1608468A14201D30168C16030BCB7
:101AA0001846FEF7B8BC30BC70472DE9F041856B95
:101AB000174604460026026C82B1C7B1E068FEF703
:101AC000AAFCE168206C091AE1602268914202D206
:101AD000A168081AE060022F16D017E02068A8B9A4
:101AE000A06801F003F906460020A0600EE06068DF
:101AF000FEF791FC216C606808446060A168884230
:101B000004D32068606001E005B16D1E6D1CA56303
:101B10003046BDE8F08110B5044690F8510058B148
:101B200001280CD002280FD0502080F31188BFF379
:101B30004F8FBFF36F8FFEE7206B00F0A7FB2046AF
:101B4000BDE8104000F0A2BB10BD000010484FF4EB
:101B5000C041420706D0C01D0D4920F00700411AC0
:101B6000C1F5C0410B4A00230144C2E90003083912
:101B7000183A21F0070111604B600B600B1AC0E9A5
:101B8000001393604FF000405360506170470000B5
:101B9000F009002084000020144E154CA6F1C8075F
:101BA0004FF08058DFF84C9012E000BF00F03AFB95
:101BB000F068C568281D00F0D9FAA068401EA06032
:101BC0006068401E606000F04DFB2846FFF7A3FFF1
:101BD00060680028EAD138680128F9D9C9F800807E
:101BE000BFF34F8FBFF36F8FF2E70000E0080020D4
:101BF0001C00002004ED00E00346009829B10260BB
:101C0000C0E90F31012100F075BD0060F8E72DE952
:101C1000F0479A46DDE9098481466FF00303206BA3
:101C200003EB82021044089E20F00707780707D0D4
:101C3000502080F31188BFF34F8FBFF36F8FFEE703
:101C4000002561B1002023180A5C83F834200A5C67
:101C500012B1401C1028F6D384F8435001E084F8F8
:101C60003450072E00D30626E662C4E91165201D14
:101C700000F0B1FA04F1180000F0ADFA2461C6F1E9
:101C800007006462A061E56484F8505052464946FA
:101C9000384600F055FA2060B8F1000F01D0C8F8BE
:101CA0000040BDE8F087000030B5114900E0114662
:101CB0000A688242FBD34B685C18844203D14068B7
:101CC00018444860084643681C18944209D1084CDF
:101CD000183C2468A24209D052681A4442600A683B
:101CE00012680260814200D0086030BD0460F9E7EC
:101CF0008400002070B5002441600B4D00619142CA
:101D000006D8D11A8269914206D2011D286907E0DE
:101D10009A4203D2994201D3012403E0011DE868ED
:101D200000F05CFA204670BD5800002010B5044653
:101D300000F078FAA06B28B15FF0000400F092FA8E
:101D4000204610BD0124F9E730B587B0394D67E072
:101D50000498002864DB069C606910B1201D00F027
:101D600005FA03A800F0D8F8024604980A2857D2CA
:101D7000DFE800F00505052D334A05052D3394F8FD
:101D8000240040F0010084F824000599A069059B17
:101D900001442046FFF7AEFF68B3216A204688471A
:101DA00094F8240040073BD5002000900598A169D5
:101DB000002342181946204601F0B0F8D8B9502047
:101DC00080F31188BFF34F8FBFF36F8FFEE714F8D6
:101DD000240F20F00100207022E094F8240040F04D
:101DE000010084F824000598A06128B181181346E9
:101DF0002046FFF77FFF13E0502080F31188BFF3E8
:101E00004F8FBFF36F8FFEE794F82400810703D450
:101E1000204600F03BFA03E020F0010084F82400A3
:101E2000002204A9286800F0B9FD002890D107B06D
:101E300030BD0000580000202DE9FC410F4605464A
:101E400000F074FB01A800F067F80446019818B18F
:101E500000F0D2FFBDE8FC81254EAFB130690068CB
:101E6000D0B30027291B3A46306800F091FA00F001
:101E7000C3FF0028EED11F494FF080500860BFF328
:101E80004F8FBFF36F8FE5E7A542EBD800F0B4FFAB
:101E9000F0682746C068C468201D00F067F994F810
:101EA0002400410719D5A0692B4641193A4620461E
:101EB000FFF720FFA8B100200346014600902A4604
:101EC000204601F02BF860B9502080F31188BFF351
:101ED0004F8FBFF36F8FFEE707E020F0010084F81B
:101EE0002400216A20468847B4E70127BAE70000AA
:101EF0005800002004ED00E00648416B096829B154
:101F0000416BC968C9684968816270474FF0FF3109
:101F1000FAE700001C00002070B5054600F07AFECC
:101F2000064E0446B068844203D200F009F801204E
:101F300000E0002028602046B46070BD58000020FA
:101F4000F8B5194D20E0C068C4680668201D00F08F
:101F50000DF9216A2046884794F82400400713D5DC
:101F6000A0693044B04206D924616060211DE86850
:101F700000F034F908E000200346014600903246A4
:101F8000204600F0CBFF38B1E86801680029DAD1BB
:101F90002969C5E90310F8BD502080F31188BFF30B
:101FA0004F8FBFF36F8FFEE758000020084840684E
:101FB000401C4FF0500080F3118804D0BFF34F8FC6
:101FC000BFF36F8FFEE7BFF34F8FBFF36F8FFEE757
:101FD0008C000020074CE068016841B1C068002116
:101FE000D0F80000FFF728FFFFF7AEFEF3E701216E
:101FF0000020F7E7580000202DE9F041044600F0EA
:1020000011F994F9455004F1240609E0606A48B1D9
:10201000304600F0B7FE08B100F00AFA6D1E6DB24E
:10202000002DF3DC4FF0FF3684F8456000F01AF91C
:1020300000F0F8F894F9445004F1100709E0206921
:1020400048B1384600F09EFE08B100F0F1F96D1E6F
:102050006DB2002DF3DC84F84460BDE8F04100F07F
:1020600001B900002DE9F0410546002700F05EFAB5
:10207000324E306808B9FFF769FD706905424ED1EC
:10208000C5B3083568070ED005F00700C0F1080099
:102090000544680707D0502080F31188BFF34F8FA5
:1020A000BFF36F8FFEE72DB37068854237D82348A2
:1020B000183001460C6801E020460C466168A942D0
:1020C00002D221680029F7D131688C4227D00768F5
:1020D0002168016060680837411B10290FD9601919
:1020E000420708D0502080F31188BFF34F8FBFF311
:1020F0006F8FFEE713E041606560FFF7D5FD616813
:102100007068401A7060B268904200D2B060706926
:1021100001430020C4E90001F068401CF06000F0B9
:102120006BFE780707D0502080F31188BFF34F8FE4
:10213000BFF36F8FFEE73846BDE8F0816C000020EA
:1021400010B5031F4FF080741C601B1F21F00101AC
:102150001960191F044B0B6014390A60091F6FF0D6
:10216000020244380A6010BDAD1F0008D0E90132F8
:1021700001699A60D0E901235A604A68824201D11C
:1021800082684A60002202610868401E0860086890
:1021900070470000034B036003F154000860802087
:1021A0001060704798000020044B036003F1540056
:1021B00008604FF48070106070470000EC0200204F
:1021C00000F108014FF0FF32C0E90112C160016166
:1021D00000210160704700210161704730B50B6834
:1021E0005A1C02D000F1080202E0026904E0224613
:1021F000546825689D42FAD953684B6099608A609B
:10220000516008610168491C016030BD42684A6044
:1022100093688B6093685960916008610168491CFC
:1022200001607047502080F31188BFF34F8FBFF3D8
:102230006F8F0A494868401C486001280CD1084843
:10224000006810F0FF0F07D0502080F31188BFF313
:102250004F8FBFF36F8FFEE7704700008C000020A8
:1022600004ED00E00849486828B1401E486001D1EB
:1022700080F311887047502080F31188BFF34F8F8F
:10228000BFF36F8FFEE700008C00002070B50028C0
:102290002AD0164DA0F1080460686969084207D188
:1022A000502080F31188BFF34F8FBFF36F8FFEE78D
:1022B00022683AB1502080F31188BFF34F8FBFF3EB
:1022C0006F8FFEE78843606000F030F960686968EE
:1022D000084468602046FFF7E7FC2869401C286135
:1022E000BDE8704000F088BD70BD00006C000020AB
:1022F0004FF0E02000210161816105494FF47A72BD
:102300000968B1FBF2F1491E416107210161704783
:102310001800002010B5FDF7E3FF114910280ED377
:1023200000F1E02090F8F0030A78904207D25020A4
:1023300080F31188BFF34F8FBFF36F8FFEE709481B
:102340000068896800F4E060884207D9502080F373
:102350001188BFF34F8FBFF36F8FFEE710BD0000F2
:102360008C0000200CED00E010B5084B002200BFEF
:1023700053F832401CB1521C082AF9D310BD43F85F
:10238000321003EBC201486010BD0000D8070020E6
:1023900070B515460E460446FFF744FF94F9441005
:1023A0000020491C01D184F8440094F94510491CCF
:1023B00001D184F84500FFF755FFA06B28B92A46E4
:1023C000314604F1240000F051F82046BDE8704089
:1023D000FFF712BE10B5020014D00F48006B38B1E1
:1023E000502080F31188BFF34F8FBFF36F8FFEE74C
:1023F00000F09CF800211046FFF778FA00F0FCFC92
:10240000002807D105494FF080500860BFF34F8F77
:10241000BFF36F8F10BD00001C00002004ED00E032
:1024200002490A6A0260C968416070471C000020C6
:1024300001490120C86170471C00002010B50C46FE
:1024400050B1094909681831FFF7C8FE2046BDE8B8
:1024500010400121FFF74ABA502080F31188BFF3E2
:102460004F8FBFF36F8FFEE71C00002070B514463E
:102470000D4668B10A4909681831FFF7C7FE0CB16B
:102480004FF0FF3521462846BDE87040FFF72EBAD1
:10249000502080F31188BFF34F8FBFF36F8FFEE79B
:1024A0001C00002030B587B00024039405AA04A9BD
:1024B00003A80494FFF76EFEDDE903010094CDE963
:1024C0000110002315A11748059A00F06AFB164D6C
:1024D0000028E8621FD000F0F1FC012809D0401C60
:1024E00019D1502080F31188BFF34F8FBFF36F8F46
:1024F000FEE7502080F31188BFF34F8FBFF36F8F3B
:102500004FF0FF30A86201206861EC6007B0BDE8C1
:10251000304000F041B807B030BD000049444C45A0
:1025200000000000991B00081C0000200248016BFD
:10253000491C0163704700001C0000201448016B17
:1025400011B10121C16170470021C1610169B1FA76
:1025500081F1C1F11F0101EB81020E4951F82230D6
:102560006BB101EB820101F108034A6852684A60CD
:102570009A4201D152684A60D16801607047502088
:1025800080F31188BFF34F8FBFF36F8FFEE700001A
:102590001C000020180800201CB537480168374A85
:1025A000914207D1502080F31188BFF34F8FBFF3C2
:1025B0006F8FFEE700683149491E884207D15020DD
:1025C00080F31188BFF34F8FBFF36F8FFEE72C4965
:1025D00008780190FF20087008788DF800009DF8B9
:1025E00000009DF8002000F0F000904207D050203D
:1025F00080F31188BFF34F8FBFF36F8FFEE79DF815
:102600000000204C00F0500020700720A06005E082
:102610009DF8002052008DF80020401E9DF80020FB
:102620001206F5D4A060032807D0502080F311884B
:10263000BFF34F8FBFF36F8FFEE74FF44070A06082
:10264000019808700C482030016841F47001016065
:10265000016841F070410160FFF74AFE00206060B0
:10266000FDF706FE0848016841F040410160FDF7B2
:10267000EBFD00201CBD000000ED00E071C20F4129
:1026800000E400E08C00002034EF00E038B5049D49
:1026900018B153B1CAB181B120E0502080F3118844
:1026A000BFF34F8FBFF36F8FFEE7502080F3118889
:1026B000BFF34F8FBFF36F8FFEE7502080F3118879
:1026C000BFF34F8FBFF36F8FFEE739B1502080F318
:1026D0001188BFF34F8FBFF36F8FFEE748241C466E
:1026E000012384F846302B460094FFF785FA2046F4
:1026F00038BD000070B50D46040025D0FFF792FDEF
:10270000D4E90F20216802FB0011A1600021A16320
:10271000216861600A46D4E90F01401E00FB0121D7
:10272000E16021464FF0FF3001F8440F487004F19A
:1027300010008DB1FFF744FD04F12400FFF740FDC8
:10274000FFF790FD012070BD502080F31188BFF38A
:102750004F8FBFF36F8FFEE721690029F0D000F0A3
:1027600011FB0028ECD004494FF080500860BFF303
:102770004F8FBFF36F8FE3E704ED00E02DE9FF47D4
:1027800082B01D468A464FF00008040003D0BAF11B
:10279000000F08D011E0502080F31188BFF34F8F55
:1027A000BFF36F8FFEE7206C38B1502080F31188A3
:1027B000BFF34F8FBFF36F8FFEE7022D0AD1E06B9F
:1027C000012807D0502080F31188BFF34F8FBFF34B
:1027D0006F8FFEE700F010FA3F4F4FF000094FF007
:1027E000805648B9049838B1502080F31188BFF35F
:1027F0004F8FBFF36F8FFEE7FFF714FDA06BE16B08
:10280000884207D3022D05D00498D0B1B8F1000F4B
:102810001AD01EE02A4651462046FFF746F9616A63
:1028200019B104F1240000F0ADFA20B13E60BFF30D
:102830004F8FBFF36F8FFFF715FD012006B0BDE886
:10284000F087FFF70FFD22E06846FFF7E9FD4FF044
:102850000108FFF707FDFFF769FEFFF7E3FC94F9B6
:102860004400401C01D184F8449094F94500401C78
:1028700001D184F84590FFF7F5FC04A9684600F003
:1028800029F930B12046FFF7B7FB00F0B5FA002078
:10289000D4E7FFF7C7FCA06BE16B884213D1FFF7C9
:1028A000E1FC04F110000499FFF7C8FD2046FFF792
:1028B000A3FB00F0A1FA00289ED13E60BFF34F8F2A
:1028C000BFF36F8F98E7FFF7CDFC2046FFF794FB2F
:1028D00000F092FA90E7000004ED00E02DE9F047E7
:1028E0001F4690468946040003D0B9F1000F08D076
:1028F00011E0502080F31188BFF34F8FBFF36F8F2B
:10290000FEE7206C38B1502080F31188BFF34F8F61
:10291000BFF36F8FFEE7022F0AD1E06B012807D0CB
:10292000502080F31188BFF34F8FBFF36F8FFEE706
:10293000FFF7F0FC5020EFF3118680F31188BFF30E
:102940004F8FBFF36F8FA06BE16B884206D3022FCE
:1029500004D0002086F31188BDE8F08794F9455033
:10296000A06B3A4649462046FFF79FF8681C04D002
:102970006D1C84F845500120ECE7606A0028FAD00D
:1029800004F1240000F0FEF90028F4D0B8F1000FA3
:10299000F1D00121C8F80010EDE700002DE9F7475C
:1029A000002683B08A46040003D0BAF1000F08D095
:1029B00011E0502080F31188BFF34F8FBFF36F8F6A
:1029C000FEE7206C38B1502080F31188BFF34F8FA1
:1029D000BFF36F8FFEE700F00FF9DFF8F4804FF0E0
:1029E00000094FF0805748B9059838B1502080F35E
:1029F0001188BFF34F8FBFF36F8FFEE7FFF712FC15
:102A0000A56BC5B151462046FFF73CF86D1EA56386
:102A1000206950B104F1100000F0B4F928B1C8F8F1
:102A20000070BFF34F8FBFF36F8FFFF71BFC0120C8
:102A300006B0BDE8F087059808B11EB106E0FFF7C3
:102A400011FC27E06846FFF7EBFC0126FFF70AFCC4
:102A5000FFF76CFDFFF7E6FB94F94400401C01D141
:102A600084F8449094F94500401C01D184F84590C5
:102A7000FFF7F8FB05A9684600F02CF8002820466F
:102A80000AD0FFF7B9FA00F0B7F92046FFF74EF980
:102A90000028B3D00020CBE7FFF748F990B104F14C
:102AA00024000599FFF7CAFC2046FFF7A5FA00F0BD
:102AB000A3F90028A2D1C8F80070BFF34F8FBFF36D
:102AC0006F8F9BE72046FFF797FA00F095F995E79F
:102AD00004ED00E02DE9F0410C46050011D0C4B131
:102AE000FFF7A0FB174BDA686E682068911B471C44
:102AF00017D02F681B6A9F4219D0964217D801241D
:102B000010E0502080F31188BFF34F8FBFF36F8F19
:102B1000FEE7502080F31188BFF34F8FBFF36F8F14
:102B2000FEE70024FFF79EFB2046BDE8F0818842C7
:102B300005D9401A20602846FFF772FCF1E7002013
:102B40002060DCE71C0000202DE9FF5F8346DDE903
:102B50000E87994616468A469000FFF783FA0500CD
:102B60001CD05420FFF77EFA040014D00020256307
:102B700084F85100CDE90240CDE900874B4632464A
:102B800051465846FFF743F82046FEF7E7FE01207E
:102B900004B0BDE8F09F2846FFF778FB4FF0FF3008
:102BA000F6E7F0B585B0DDE90B640A9DA6B1DCB1AE
:102BB000542700972663022684F85160002604AF4C
:102BC000CDE90246CDE90057FFF721F82046FEF790
:102BD000C5FE049805B0F0BD502080F31188BFF306
:102BE0004F8FBFF36F8FFEE7502080F31188BFF344
:102BF0004F8FBFF36F8FFEE70548416919B1006B36
:102C000018B1002070470120704702207047000073
:102C10001C0000200148C068704700001C00002014
:102C20002DE9F0412F4C0026206B28B1A069401CF3
:102C3000A0613046BDE8F081E5686D1CE56013D108
:102C4000606B006838B1502080F31188BFF34F8F5C
:102C5000BFF36F8FFEE7606BA16B6163A063206AB7
:102C6000401C2062FFF748F9A06ADFF87C808542AB
:102C700009D3606B0068A0B1606BC068C7687868F2
:102C8000854211D2A0622068C06A00EB800158F82A
:102C90002100012800D90126E0690028C9D00126B9
:102CA000C7E74FF0FF30EDE7381DFFF75FFAB86A6E
:102CB00018B107F11800FFF759FAF96A01202269E3
:102CC00088401043206101EB810108EB8100391D30
:102CD000FFF79CFAF86A2168C96A8842C9D30126BD
:102CE000C7E700001C0000201808002070B5040091
:102CF0004FF0000140D0214D2868844207D0502079
:102D000080F31188BFF34F8FBFF36F8FFEE7A06C86
:102D100038B1401EA064636CE26A9A422CD040B184
:102D20002AE0502080F31188BFF34F8FBFF36F8FDD
:102D3000FEE7201DFFF71AFA114A012150B9E06A97
:102D400000EB800352F8233023B92B6901FA00F01D
:102D500083432B61606CE062C0F10700A061E06A10
:102D60002B6981401943296100EB800002EB800050
:102D7000211DFFF74BFA0121084670BD1C00002001
:102D8000180800202DE9F041C068C468ACB104F116
:102D900018000746FFF7EAF9154D286B0126A0B188
:102DA00039461448FFF732FAE06A2968C96A88424E
:102DB0001CD90120EE61BDE8F081502080F311881C
:102DC000BFF34F8FBFF36F8FFEE7201DFFF7CEF9E4
:102DD000E16A2A6906FA01F01043286101EB8100DB
:102DE0000449B43901EB8000211DDBE70020E2E754
:102DF0001C000020CC0800202DE9F0472C4D0024B9
:102E00002746286B38B1FFF70DFA286B401E286360
:102E1000286B40B146E0502080F31188BFF34F8FFC
:102E2000BFF36F8FFEE7A968224E0120D1B3A6F150
:102E3000B40980463068E8B1F068C46804F118004D
:102E4000FFF794F9201DFFF791F9E06A2A6908FA63
:102E500000F11143296100EB800109EB8100211D84
:102E6000FFF7D4F9E06A2968C96A8842E2D3C5F855
:102E70001C80DFE70CB1FFF73FF8AC6944B1464670
:102E8000FFF7CEFE00B1EE61641EF9D10020A8610B
:102E9000E86938B10849012738070860BFF34F8F48
:102EA000BFF36F8FFFF7DEF93846BDE8F08700000B
:102EB0001C000020CC08002004ED00E010B586B016
:102EC000FEF7B4FD114C2068B8B1002003900490C7
:102ED00005AA04A903A8FFF767F9DDE90321022089
:102EE0008DE8070000230AA10B48059AFFF759FE59
:102EF000606010B106B0012010BD502080F3118831
:102F0000BFF34F8FBFF36F8FFEE700005800002024
:102F1000546D722053766300D51F0008FEB51E461F
:102F200013460200089D4FF0000014D0124C276891
:102F3000002F0FD0CDE900130292062915DAFFF712
:102F40005BFE02284FF000030DD000226946206886
:102F5000FFF714FCFEBD502080F31188BFF34F8FA4
:102F6000BFF36F8FFEE72A46F0E70023324669463B
:102F70003846FFF7B3FCFEBD580000204FF040700C
:102F8000E1EE100A70470000E42F000881160008E7
:102F900000000000000000008000000000000000B1
:102FA00000000000D82F0008891600080200000069
:102FB0000000000080000000000000000000000091
:102FC00000000000000000000102030406070809D9
:102FD00000000000010203046D795461736B30320C
:102FE0000000000064656661756C745461736B0069
:102FF000103000080000002098000000C401000804
:10300000A830000898000020B86F0000E001000818
:1030100000000000000000000000000001000000AF
:1030200010000000000000000024F4000000000078
:103030000000000000000000000000000000000090
:103040000000000000000000000000000000000080
:103050000000000000000000000000000000000070
:103060000000000000000000000000000000000060
:103070000000000000000000000000000000000050
:103080000000000000000000000000000000000040
:103090000000000000000000000000000000000030
:0830A000AAAAAAAA0000000080
:040000050800018965
:00000001FF
